:1000000004C100002FC100002DC100002BC1000061
:1000100029C1000027C1000025C1000023C1000044
:1000200021C100001FC100001DC100001BC1000054
:1000300019C1000017C1000015C1000013C1000064
:1000400011C100000C94B20E0DC100000BC10000E4
:1000500009C1000007C1000005C100000C94F50FA4
:1000600001C100000C94C5150C940917FBC00000D9
:10007000F9C00000F7C00000F5C00000F3C00000A8
:100080000C94850EEFC00000EDC00000EBC0000036
:100090000C9405160C944817E5C00000E3C000005E
:1000A000E1C00000DFC000000C94580EDBC000006F
:1000B000D9C00000D7C00000D5C000000C942B0EA2
:1000C000D1C00000CFC00000CDC000000C94451688
:1000D0000C948717C7C000000C9485160C94C617A3
:1000E000C1C0000000002100240027002A002D00CC
:1000F0003000330001010000040107010A01000083
:100100002200250028002B002E00310034000201BF
:100110000000050108010B0100002000230026005B
:1001200029002C002F00320000010000030106010D
:10013000090105050505070508080808020202026D
:100140000A0A080804040404010101010101010173
:100150000303030303030303040707070C0C0C0C3E
:100160000C0C0C0C02020202060606060606060627
:100170000B0B0B0B0B0B0B0B0102102020080810B4
:100180002040102040800201020108040201010207
:1001900004081020408080402010080402018004E0
:1001A000020180402010080402010804020101023B
:1001B0000408102040800102040810204080000044
:1001C000090A02080B0C0D070603040100000000D9
:1001D000000000000000000000000000000000001F
:1001E0000000000000000000000011100F000000DF
:1001F00000000000000000000000000000000000FF
:100200000000000004053519FF0411241FBECFEFC4
:10021000D1E2DEBFCDBF00E00CBF16E0A0E0B2E04F
:10022000E6E0F9E300E00BBF02C007900D92A630B4
:10023000B107D9F71BBE19E0A6E0B6E001C01D92D8
:10024000A23FB107E1F712E0C8E0D2E004C0229774
:10025000FE010E94311CC430D107C9F70E94B715B6
:100260000C94771CCDCEA0E0B0E0E9E3F1E00C9473
:10027000481CEC01A880B980CA80DB80A114B104BD
:10028000C104D10441F484E2A82E89EDB82E8BE597
:10029000C82E87E0D82EC601B5012DE133EF41E02D
:1002A00050E00E94001C27EA31E440E050E00E9448
:1002B000A01B7B018C01C601B5012DE133EF41E0AC
:1002C00050E00E94001CCA01B9012CEE34EF4FEF40
:1002D0005FEF0E94A01B6E0D7F1D801F911F97FF77
:1002E00004C06150704080409048688379838A835D
:1002F0009B839B01AC015F77B901CA01CDB7DEB723
:10030000EAE00C94641CAFCF8BE995E0ACCF60932E
:100310009B0570939C0580939D0590939E05089581
:10032000FC0188279927E89421912032E9F32930AC
:1003300010F02E30C8F32B3239F02D3231F468949E
:1003400003C08AD0820F911D219120532A30C8F317
:100350001EF4909581959F4F0895FB01DC0102C02A
:1003600001900D9241505040D8F70895FB01DC01F7
:1003700001900D920020E1F70895FB01DC0141504E
:10038000504030F08D910190801919F40020B9F798
:10039000881B990B0895FB01DC014150504048F047
:1003A00001900D920020C9F701C01D9241505040AC
:1003B000E0F70895009731F4DA018D919C91009750
:1003C00009F40EC0DC01FB013D912191222319F0BB
:1003D0003217C9F3FACF332331F4DA011D921C929C
:1003E0008827992708951197AF93BF93FB013D91FB
:1003F0002191321771F4332321F48827992711971B
:1004000002C01E921196FA01A193B0839F918F9121
:100410000895222369F7EACFFB019F01E894423057
:10042000C4F04532B4F44A3029F497FB1EF4909599
:1004300081959F4F642F77270E941B1C805D8A3314
:100440000CF0895D8193CB010097A1F716F45DE272
:1004500051931082C90111C27AE0979F902D879F16
:10046000802D910D11240895AEE0B0E0EAE3F2E0B2
:100470000C944E1C0E891F8986E08C831A83098395
:100480008FEF9FE79E838D839E01265E3F4FCE01B7
:100490000196688D798DA9010AD02F813885020FC8
:1004A000131FF80110822E96E4E00C946A1CABE056
:1004B000B0E0EDE5F2E00C94401C3C012B015A0148
:1004C000FC0117821682838181FD03C06FEF7FEFED
:1004D000B9C19AE0892E1E010894211C311CF30138
:1004E0002381F20123FD859123FF81912F01882330
:1004F00009F4A5C1853239F423FD859123FF81914B
:100500002F01853221F490E0B301C7D1E8CF982FB5
:10051000FF24EE249924FFE1FF15D0F09B3269F00F
:100520009C3228F4903259F0933291F40EC09D32EF
:1005300049F0903369F441E024C052E0F52A84E0A8
:10054000F82A28C098E0F92A25C0E0E1FE2A22C056
:10055000F7FC29C0892F80538A3070F4F6FE05C05D
:10056000989C902C1124980E15C0E89CE02C112426
:10057000E80EF0E2FF2A0EC09E3229F4F6FC5FC1BD
:1005800040E4F42A07C09C3619F450E8F52A02C06A
:10059000983649F4F20123FD959123FF91912F01A3
:1005A000992309F0B8CF892F8554833018F08052F1
:1005B000833038F444E050E0A40EB51E5FE3598365
:1005C0000FC0933631F0933779F0933509F052C06C
:1005D0001FC0F5018081898342E050E0A40EB51E62
:1005E000610101E010E011C0F501C080D180F6FC8E
:1005F00003C06FEF7FEF02C0692D70E042E050E072
:10060000A40EB51EC6012ED18C015FE7F52213C0E2
:10061000F501C080D180F6FC03C06FEF7FEF02C010
:10062000692D70E042E050E0A40EB51EC6010FD166
:100630008C0150E8F52AF3FE06C018C080E290E075
:10064000B3012BD1EA948E2D90E008171907B0F36F
:100650000DC0F601F7FC8591F7FE81916F0190E0E6
:10066000B3011BD1E110EA940150104001151105AE
:1006700081F7E2C0943611F0993661F5F7FE08C0B3
:10068000F501208131814281538184E090E00AC0EC
:10069000F501808191819C01442737FD4095542FBD
:1006A00082E090E0A80EB91E9FE6F92257FF09C02C
:1006B00050954095309521953F4F4F4F5F4FE0E863
:1006C000FE2ACA01B901A1012AE030E012D1D82ED8
:1006D000D2183FC0953729F41F2D1F7E2AE030E045
:1006E0001DC01F2D197F9F3661F0903720F498357B
:1006F00009F0A5C00FC0903739F0983709F09FC0B6
:1007000004C028E030E00AC0106114FD146020E14C
:1007100030E004C014FD166020E132E017FF08C08D
:10072000F501608171818281938144E050E008C0CD
:10073000F50180819181BC0180E090E042E050E0D1
:10074000A40EB51EA101D5D0D82ED2188FE7F82E51
:10075000F122F6FE0BC05EEFF522D91438F4F4FE58
:1007600007C0F2FC05C08FEEF82202C01D2D01C0AB
:10077000192DF4FE0DC0FE01ED0DF11D80818033B9
:1007800019F499EEF92208C01F5FF2FE05C003C0FC
:100790008F2D867809F01F5F0F2DF3FC13C0F0FE3C
:1007A0000EC01E1510F09D2C0AC09D2C9E0C911A97
:1007B0001E2D05C080E290E0B3016FD01F5F1E15B3
:1007C000C8F304C01E1510F4E11A01C0EE2404FFA2
:1007D0000EC080E390E0B30160D002FF1BC001FDBA
:1007E00003C088E790E00EC088E590E00BC0802F42
:1007F000867881F001FF02C08BE201C080E2F7FC45
:100800008DE290E0B30149D005C080E390E0B301F0
:1008100044D09A94D914C8F3DA94F101ED0DF11D86
:10082000808190E0B30139D0DD20B1F705C080E2CE
:1008300090E0B30132D0EA94EE20C9F750CEF30134
:1008400066817781CB012B96E2E10C945C1CFC0164
:100850000590615070400110D8F7809590958E0FEB
:100860009F1F0895FC016150704001900110D8F75E
:10087000809590958E0F9F1F0895DC01FC01672FD6
:1008800071917723E1F7329704C07C916D93708367
:100890006291AE17BF07C8F308950F931F93CF93CC
:1008A000DF938C01EB018B8181FF1BC082FF0DC0A8
:1008B0002E813F818C819D812817390764F4E8815E
:1008C000F9810193F983E88306C0E885F985802FD3
:1008D0001995892B31F48E819F8101969F838E8398
:1008E00002C00FEF1FEFC801DF91CF911F910F9151
:1008F0000895FA01AA27283051F1203181F1E894B6
:100900006F936E7F6E5F7F4F8F4F9F4FAF4FB1E002
:100910003ED0B4E03CD0670F781F891F9A1FA11DFD
:10092000680F791F8A1F911DA11D6A0F711D811DFE
:10093000911DA11D20D009F468943F912AE0269FC3
:1009400011243019305D3193DEF6CF010895462F22
:100950004770405D4193B3E00FD0C9F7F6CF462F03
:100960004F70405D4A3318F0495D31FD405241936C
:1009700002D0A9F7EACFB4E0A69597958795779529
:100980006795BA95C9F700976105710508959B01B0
:10099000AC010A2E06945795479537952795BA9539
:1009A000C9F7620F731F841F951FA01D0895CF9371
:1009B000DF9381309105B9F46F5F7F4FE9F488E9E7
:1009C00096E060E072E00E94CF13C6E0D6E0CE0170
:1009D000E2D6239686E0C636D807C9F786E696E0C3
:1009E0000E94DC0F09C0892B39F46F5F7F4F21F41F
:1009F00088E996E00E946F14DF91CF91089580E01E
:100A000090E06FEF7FEFD3CF81E090E06FEF7FEF6B
:100A1000CECF86E699E065E072E00C9462150F9304
:100A20001F9306E619E0C8016DE172E00E946215AD
:100A3000C8016AE472E00E946215C80168E772E0CA
:100A40000E946215C8016FEA72E00E946215C80137
:100A500066EE72E00E946215C80160E373E00E94D6
:100A60006215C80160E873E00E946215C8016CEA73
:100A700073E00E946215C80160EE73E00E94621587
:100A8000C80164E174E00E946215C8016EE374E07D
:100A90000E9462151F910F9108950F931F9306E610
:100AA00016E0C80160E974E04FE055E00E948B0F4A
:100AB000C80165E974E04AED59E00E948B0FC80156
:100AC00067E974E043EA57E00E948B0FC80169E9C7
:100AD00074E04BE95BE00E948B0FC8016BE974E0A6
:100AE00046E85BE00E948B0FC8016DE974E04AE7BD
:100AF0005BE00E948B0FC8016FE974E043E65BE0A6
:100B00000E948B0FC80161EA74E047EA5BE00E9433
:100B10008B0FC80166EA74E042E95BE00E948B0F2C
:100B2000C8016CEA74E048E157E00E948B0FC801ED
:100B300069E075E00E94DF0E1F910F9108954F92BA
:100B40005F926F927F928F929F92AF92BF92CF925D
:100B5000DF92EF92FF920F931F93DF93CF93CDB766
:100B6000DEB76C970FB6F894DEBF0FBECDBF582E20
:100B7000492E809192068823C9F0852D9C01790128
:100B800000E010E098E0692E712C6C0E7D1E4E0185
:100B90000894811C911C86E1A82EB12CAC0EBD1EC0
:100BA000BFE0CB2ED12CCC0EDD1E4BC0A52CB42C1F
:100BB000C5014C017C0100E010E05FC0C3016FEA99
:100BC00074E00E94E813D7016D917C91C4014AE062
:100BD0000E941814C301B4010E949C136FEB74E0CF
:100BE0000E948213BC0186E699E00E947315C4013D
:100BF0000E946F14C3010E947314C50161EC74E07C
:100C00000E94E813D701ED91FD917D01EE0FFF1FCA
:100C1000ED54FA4F60817181C6014AE00E941814B8
:100C2000C501B6010E949C13BC0186E699E00E94B2
:100C3000A515C6010E946F14C5010E9473140F5FB1
:100C40001F4F8091A3059091A405081719070CF474
:100C5000B5CFACCFF701819191917F010197FC0154
:100C6000EE0FFF1F8E0F9F1FEB54FA4F60817181B3
:100C70008A5F994F2BD70F5F1F4F8091A3059091EB
:100C8000A4050817190734F3CC24DD244DC0D7017F
:100C90002D913D917D0121503040C901880F991F50
:100CA000820F931F8A5F994F60E070E0FAD50F5F63
:100CB0001F4F8091A3059091A405081719073CF3D5
:100CC0006091A1057091A205882777FD8095982FE6
:100CD0000E944B10750100E010E012C0F701219155
:100CE00031917F0121503040C901880F991F820F37
:100CF000931F8A5F994F64EB70E0D3D50F5F1F4F4E
:100D00008091A3059091A405081719073CF3609101
:100D1000A1057091A205882777FD8095982F0E94E4
:100D20004B100894C11CD11C80919F059091A00587
:100D3000C816D9061CF000E010E014C0750100E0F0
:100D400010E0B7CFD4012D913D914D01215030409D
:100D5000C901880F991F820F931F8A5F994F35D55C
:100D60000F5F1F4F8091A3059091A40508171907E5
:100D70004CF36C960FB6F894DEBF0FBECDBFCF918B
:100D8000DF911F910F91FF90EF90DF90CF90BF9078
:100D9000AF909F908F907F906F905F904F9008954D
:100DA0000F931F93CF93DF939C018091A505882318
:100DB000D1F1C9010197FC01EE0FFF1FEF01C80F30
:100DC000D91FCA5FD94FEB54FA4F60817181CE01B0
:100DD0007DD600E010E01EC0CE0160E070E061D57D
:100DE0006091A1057091A205882777FD8095982FC5
:100DF0000E944B10CE0164EB70E053D56091A105C9
:100E00007091A205882777FD8095982F0E944B103E
:100E10000F5F1F4F80919F059091A005081719073C
:100E2000DCF2CE01D2D4DF91CF911F910F910895C2
:100E3000AF92BF92CF92DF92EF92FF920F931F93E8
:100E4000DF93CF93CDB7DEB72E970FB6F894DEBF02
:100E50000FBECDBFCDB6DEB68091A3059091A4059F
:100E6000880F991F2DB73EB7281B390B0FB6F89482
:100E70003EBF0FBE2DBF8DB79EB701965C0180911E
:100E80009206882321F138E0E32EF12CEC0EFD1EB2
:100E9000C7016DEC74E00E94E8136091A3057091A6
:100EA000A4058E010F5F1F4FC8014AE00E9418146D
:100EB000C701B8010E949C13BC0186E699E00E941C
:100EC000A515C8010E946F14C7010E94731400E0A9
:100ED00010E00CC02D933D9301962F5F3F4F8E176E
:100EE0009F07C4F3C5012BDE0F5F1F4FE091A305E1
:100EF000F091A40580E290E0BF010E94CB1B061791
:100F000017075CF4D5010E9F90010F9F300D1E9FB7
:100F1000300D112480E090E0E0CF0FB6F894DEBEF3
:100F20000FBECDBE2E960FB6F894DEBF0FBECDBF5E
:100F3000CF91DF911F910F91FF90EF90DF90CF90B5
:100F4000BF90AF9008958F929F92AF92BF92CF9231
:100F5000DF92EF92FF920F931F93DF93CF93CDB762
:100F6000DEB765970FB6F894DEBF0FBECDBF86E63D
:100F700096E029D7009711F0D3D98C01F801319769
:100F8000E032F10508F03FC0EE0FFF1FEB54FA4FBF
:100F900080809180C80104DF58E0A52EB12CAC0EF2
:100FA000BD1EC50166EE74E00E94E8136E01089450
:100FB000C11CD11CC601B8014AE00E941814C50129
:100FC000B6010E949C136BEE74E00E9482137C01B8
:100FD0008E01015F1F4FC801B4014AE00E9418143E
:100FE000C701B8010E949C13BC0186E699E00E94EB
:100FF000A515C8010E946F14C6010E946F14C50197
:101000000E94731403C08DEE94E003DD65960FB665
:10101000F894DEBF0FBECDBFCF91DF911F910F912E
:10102000FF90EF90DF90CF90BF90AF909F908F9008
:101030000895DF92EF92FF920F931F930E943D104D
:101040007B018C01DD248091940690919506A091FE
:101050009606B0919706E81AF90A0A0B1B0B6091E5
:10106000AA057091AB05882777FD8095982F20E61B
:101070003AEE40E050E00E94A01BE616F706080793
:10108000190710F0DD24D3948D2D1F910F91FF903F
:10109000EF90DF900895AF92BF92CF92DF92EF92E0
:1010A000FF920F931F93DF93CF93CDB7DEB72E97A9
:1010B0000FB6F894DEBF0FBECDBF6091A60570914C
:1010C000A705882777FD8095982F2091A805309156
:1010D000A905442737FD4095542F0E94DF14D62ED2
:1010E000C72E5601CAD760939406709395068093D5
:1010F00096069093970680919206882331F178E0C6
:10110000E72EF12CEC0EFD1EC7016EEE74E00E947E
:10111000E8138E010F5F1F4FC8016D2D7C2D4AE033
:101120000E941814C701B8010E949C1360E075E08A
:101130000E948213BC0186E699E00E94A515C801B1
:101140000E946F14C7010E9473148B2D9A2D2E9646
:101150000FB6F894DEBF0FBECDBFCF91DF911F91C8
:101160000F91FF90EF90DF90CF90BF90AF900895D8
:1011700086E696E032D680919306882349F059DFBF
:10118000882331F088DF9093AB058093AA0550CE79
:1011900008952F923F924F925F926F927F928F921B
:1011A0009F92AF92BF92CF92DF92EF92FF920F93F6
:1011B0001F93DF93CF93CDB7DEB7A0970FB6F89408
:1011C000DEBF0FBECDBF8D8F9E8F57D728EE33E089
:1011D00040E050E00E94DE1B59016A01C601B501E2
:1011E0002CE330E040E050E00E94DE1B79018A01F0
:1011F000C801B7012CE330E040E050E00E94DE1B64
:10120000322E232E4F8F58A38DB79EB708970FB657
:10121000F8949EBF0FBE8DBF6DB67EB60894611C5C
:10122000711C95EA492E96E0592EADB7BEB71296BD
:101230005C924E92119789E0882E85E0982EF301FA
:1012400093828282C801B7012CE330E040E050E095
:101250000E94A01BA61AB70AC80AD90AD30114967D
:10126000AD92BD92CD92DC921797FED8CDB6DEB688
:101270000894C11CD11CB2EA6B2EB6E07B2EEDB7F0
:10128000FEB772826182D60113969C928E9212975B
:10129000632D722D8F8D98A12CE330E040E050E05B
:1012A0000E94A01BE61AF70A080B190BF601E4824C
:1012B000F58206831783D8D8EDB7FEB731960FE9CC
:1012C00016E0ADB7BEB712961C930E93119793829A
:1012D000828234822582BF8DB68388A18783C4D859
:1012E000ADB7BEB718960FB6F894BEBF0FBEADBF70
:1012F0004E010894811C911CC401B8010E94CF13B7
:10130000A8E0AA2EB12CAC0EBD1EC501B4010E94EE
:101310006614FEE0EF2EF5E0FF2EC501B7010E9436
:1013200082138C01EFE0CE2ED12CCC0EDD1EC60137
:10133000B3010E94CF13C801B6010E949C13B701EC
:101340000E9482137C018E010A5E1F4FC801B20108
:101350000E94CF13C701B8010E949C13BC018D8D60
:101360009E8D0E945D14C8010E946F14C6010E94E8
:101370006F14C5010E947314C4010E946F148D8DF7
:101380009E8DA0960FB6F894DEBF0FBECDBFCF9155
:10139000DF911F910F91FF90EF90DF90CF90BF9062
:1013A000AF909F908F907F906F905F904F903F9005
:1013B0002F9008954F925F926F927F928F929F929B
:1013C000AF92BF92CF92DF92EF92FF920F931F9353
:1013D000DF93CF93CDB7DEB7C558D0400FB6F894A2
:1013E000DEBF0FBECDBF18E7612E712C6C0E7D1EC7
:1013F000C30160E175E00E94CF13B7E04B2E512C82
:10140000460C571CC20164E175E00E94CF138E01A7
:101410000F5F1F4FC80167E175E00E94E813C80124
:1014200068E976E00E949C13BC01A6E68A2EA9E03A
:101430009A2EC4010E94A515C8010E947314FFE0F2
:10144000EF2EF12CEC0EFD1EC70161E275E00E944B
:10145000E8138E01085F1F4FC8019BDEC701B8016A
:101460000E949C13BC01C4010E94A515C8010E94E2
:101470006F14C7010E9473148E010A5E1F4FC801CA
:101480006AE275E00E94E8136091930687E0689F26
:10149000B0011124660D771DC8010E949C13BC0188
:1014A000C4010E94A515C8010E947314E4E2EE2E47
:1014B000F12CEC0EFD1EC70165E375E00E94E813F8
:1014C0008E01035E1F4F60919F057091A005C801BA
:1014D0004AE00E941814C701B8010E949C13BC0185
:1014E000C4010E94A515C8010E946F14C7010E9483
:1014F000731472E3E72EF12CEC0EFD1EC70164E4B9
:1015000075E00E94E8138E01055D1F4F6091A305F1
:101510007091A405C8014AE00E941814C701B801DF
:101520000E949C13BC01C4010E94A515C8010E9421
:101530006F14C7010E94731460E4E62EF12CEC0EC8
:10154000FD1EC70161E575E00E94E8138E01075C8E
:101550001F4F6091A1057091A205C8014AE00E9449
:101560001814C701B8010E949C13BC01C4010E9459
:10157000A515C8010E946F14C7010E9473145EE490
:10158000A52EB12CAC0EBD1EC50160E675E00E9413
:10159000E81347E4E42EF12CEC0EFD1E6091A60545
:1015A0007091A705C7014AE00E941814C501B70150
:1015B0000E949C1363E775E00E9482136C018E0108
:1015C0000B5A1F4F6091A8057091A905C8014AE008
:1015D0000E941814C601B8010E949C13BC01C401EA
:1015E0000E94A515C8010E946F14C7010E946F14C4
:1015F000C5010E94731433E6E32EF12CEC0EFD1EA0
:10160000C70167E775E00E94E8138E01045A1F4F77
:101610006091A1057091A205C8014AE00E941814CA
:10162000C701B8010E949C13BC01C4010E94A5150A
:10163000C8010E946F14C7010E94731421E7E22EB3
:10164000F12CEC0EFD1EC70168E875E00E94E8135E
:1016500080E0BDD6BC018E0106591F4FC8014AE08B
:101660000E941814C701B8010E949C13BC01C40158
:101670000E94A515C8010E946F14C7010E9473142F
:10168000C4016EE374E00E946215C2010E946F14EF
:10169000C3010E946F14CB57DF4F0FB6F894DEBF23
:1016A0000FBECDBFCF91DF911F910F91FF90EF90B3
:1016B000DF90CF90BF90AF909F908F907F906F9072
:1016C0005F904F90089586E696E07DD3009731F0C5
:1016D0000E9490019093A7058093A60586E696E068
:1016E00072D3009731F00E9490019093A9058093E6
:1016F000A80560CE86E696E066D3009731F00E949A
:1017000090019093A4058093A30554CE86E696E0BD
:101710005AD3009731F00E9490019093A2058093D4
:10172000A10548CE90E080919206882309F491E0CB
:10173000909392063FCE86E696E045D3009731F02F
:101740000E9490019093A00580939F0533CE60E0A6
:1017500080919306882309F461E060939306809159
:10176000AC051CD727CE0F931F9306E619E0C801DE
:1017700040E051EE60E070E00E9405188ED9C8018B
:1017800062E975E00E9462158091AC0561E053D674
:101790001F910F910895FC018091A806803390F469
:1017A00080838F5F8093A806815090E0FC01EE0F4C
:1017B000FF1FE80FF91FE755F94F88EB9BE0928375
:1017C000818308958FEF80830895DC018C9190E0F0
:1017D000FC01EE0FFF1FE80FF91FE755F94F80815D
:1017E0008F7B80838C916CE00E94BF1B90E0AC01EA
:1017F000440F551F480F591F440F551F440F551FC5
:1018000020E030E0C901840F951FFC01EE0FFF1F9F
:10181000E80FF91FE755F94F808186FD05C02F5F5E
:101820003F4F2C30310571F70895FC0120812033A2
:10183000B8F58181992787FD909548E850E0481BCD
:10184000590B440F551F440F551F6417750784F03B
:101850008281992787FD909548E552E0481B590BF6
:10186000440F551F440F551F641775070CF4AB0147
:1018700042505040CA01AA2797FDA095BA2F880F61
:10188000991FAA1FBB1F4FB7F89430E0F901EE0F64
:10189000FF1FE20FF31FE755F94F928381834FBF7C
:1018A0000895AF92BF92CF92DF92EF92FF920F9383
:1018B0001F93CF93DF93EC019B0182E060327807A6
:1018C0000CF047C077FF03C020E030E005C0653B67
:1018D000710514F024EB30E000D00F92B901882795
:1018E00077FD8095982F2981332727FD3095E8E8EB
:1018F000AE2EB12CA21AB30AAA0CBB1CAA0CBB1C9C
:10190000CC24B7FCC094DC2CEA81FF27E7FDF095DE
:1019100028E532E02E1B3F0B220F331F220F331F0F
:10192000442737FD4095542FEDB7FEB7218332830E
:101930004383548320E030E040E050E004EBE02EAD
:10194000F12C012D112DD3D79B010F900F900F90EB
:101950000F90CE01B90169DFDF91CF911F910F91F7
:10196000FF90EF90DF90CF90BF90AF900895CF920F
:10197000DF92EF92FF921F93CF93DF93EC01162F2C
:101980007A0169018881803308F092C0862F61E076
:1019900052D5888190E0FC01EE0FFF1FE80FF91F80
:1019A000E755F94F1F738081807C812B808380E213
:1019B00092E08E199F0964E070E00E94CB1B69835E
:1019C00080E699E08C199D0964E070E00E94CB1BD1
:1019D0006A83A8818A2F6CE00E94BF1B682F70E089
:1019E000AB01440F551F460F571F440F551F440F9F
:1019F000551F20E030E0C901840F951FFC01EE0F58
:101A0000FF1FE80FF91FE755F94F808186FD44C09D
:101A10002F5F3F4F2C30310571F753C0109280007B
:101A200082E0809381001092850010928400B19A28
:101A300080916F00826080936F002EC062307105CC
:101A400069F41092900082E08093910010929500CA
:101A50001092940088BB809371001EC063307105A2
:101A600069F41092A00082E08093A1001092A5007A
:101A70001092A40089BB809372000EC0672B61F4A2
:101A80001092200182E08093210110922501109292
:101A900024018ABB809373008A2F90E0FC01EE0F33
:101AA000FF1FE80FF91FE755F94F8081806480839D
:101AB0008881DF91CF911F91FF90EF90DF90CF90C1
:101AC00008956130710509F0B9CFA8CF40E252E026
:101AD00020E639E04CCFEF92FF920F931F93CF9304
:101AE000DF938B017A01EC01DC01A75CB84F8C918C
:101AF00087FF04C0FB011182108236C0AE01440F83
:101B0000551F4C0F5D1F440F551F440F551F2C913F
:101B1000332727FD3095240F351F8091A80690E0CC
:101B2000281739070CF58C91992787FD9095840F1C
:101B3000951FFC01EE0FFF1FE80FF91FE755F94F46
:101B4000808186FF11C08C91992787FD9095840F25
:101B5000951FFC01EE0FFF1FE80FF91FE755F94F26
:101B600080818F7360E01AD5DE01A75CB84F8C913D
:101B70008F5F8C93AE01440F551F4C0F5D1F440FB8
:101B8000551F440F551F2C91332727FD3095240FE7
:101B9000351F8091A80690E0281739070CF04CC03B
:101BA0008C918C300CF048C0F801208131818C91EF
:101BB000992787FD9095840F951FFC01EE0FFF1F5D
:101BC000E80FF91FE755F94F81819281280F391FDE
:101BD000F701318320838C91992787FD9095840F9D
:101BE000951FFC01EE0FFF1FE80FF91FE755F94F96
:101BF000808186FF29C08C91992787FD9095840F5D
:101C0000951FFC01EE0FFF1FE80FF91FE755F94F75
:101C100080818F7361E0C2D417C080E49CE904C066
:101C2000F801808191810496F70191838083C75CDC
:101C3000D84F8FEF888308C0F80180819181049686
:101C400080549C4950F3ECCFDF91CF911F910F91BD
:101C5000FF90EF9008951F920F920FB60F920BB660
:101C60000F9211242F933F934F935F936F937F9322
:101C70008F939F93AF93BF93EF93FF9380E090E098
:101C800064E271E048E251E026DFFF91EF91BF91FD
:101C9000AF919F918F917F916F915F914F913F9104
:101CA0002F910F900BBE0F900FBE0F901F901895A5
:101CB0001F920F920FB60F920BB60F9211242F9313
:101CC0003F934F935F936F937F938F939F93AF93C4
:101CD000BF93EF93FF9383E090E064EA70E048EAFB
:101CE00050E0F9DEFF91EF91BF91AF919F918F91FD
:101CF0007F916F915F914F913F912F910F900BBE0C
:101D00000F900FBE0F901F9018951F920F920FB655
:101D10000F920BB60F9211242F933F934F935F9323
:101D20006F937F938F939F93AF93BF93EF93FF93A3
:101D300082E090E064E970E048E950E0CCDEFF9199
:101D4000EF91BF91AF919F918F917F916F915F9133
:101D50004F913F912F910F900BBE0F900FBE0F90A0
:101D60001F9018951F920F920FB60F920BB60F92FD
:101D700011242F933F934F935F936F937F938F9390
:101D80009F93AF93BF93EF93FF9381E090E064E85C
:101D900070E048E850E09FDEFF91EF91BF91AF9176
:101DA0009F918F917F916F915F914F913F912F9173
:101DB0000F900BBE0F900FBE0F901F901895FC0157
:101DC000748363830895BC01AC01465D5F4F80E07E
:101DD00090E06B5F7F4F0C94DA012F923F924F920D
:101DE0005F926F927F928F929F92AF92BF92CF92AB
:101DF000DF92EF92FF920F931F93CF93DF938C01AB
:101E000028E0222E312C280E391E95E0492E512C27
:101E1000400E511E8AE2682E712C600E711E57C052
:101E200086E699E00E94BC18F82ED80117968C918E
:101E3000F816B1F5C101B201A3010E94DA015C01FB
:101E4000009739F1F8018281882E9924CC24DD2471
:101E5000EE24FF2418C0D801CD91DC91CE0DDF1DFA
:101E6000C501BE0148E050E00E94BD01EBE0F0E09A
:101E7000EE0EFF1E009721F4E985FA85199509C039
:101E80000894C11CD11CC814D9042CF329C0C50165
:101E90001995D80118961C92189799961C9217C0FC
:101EA0008F2D992787FD90950E94371C892B79F0FB
:101EB000F80181A5803258F4E80FF11DF0868F5F9C
:101EC000D80199968C93F801E80FF11D108686E6EB
:101ED00099E00E948B18181619060CF4A1CF08C0BF
:101EE000D8011396ED91FC911497309781F6D1CFDC
:101EF000DF91CF911F910F91FF90EF90DF90CF90E6
:101F0000BF90AF909F908F907F906F905F904F9019
:101F10003F902F900895AF92BF92CF92DF92EF92B1
:101F2000FF920F931F938C016B015A01DC011296F3
:101F30008C91129790E001963BE0E32EF12C8E9D60
:101F4000B0018F9D700D9E9D700D11248D919C91FF
:101F50005DD19C01F8019183808382814BE0849F55
:101F6000C0011124820F931FB60148E050E00E9487
:101F7000CB01D80112968C91129790E0FC01EE9D56
:101F8000C001EF9D900DFE9D900D1124ED91FC91EF
:101F90001197E80FF91FB286A18612968C911297BD
:101FA0008F5F12968C931F910F91FF90EF90DF90AF
:101FB000CF90BF90AF9008950F931F938C01FC01B9
:101FC000118210821282148213828AE0878313A600
:101FD00012A6C801059669E975E00E94B601F801EC
:101FE000108611A61F910F9108951F920F920FB6A0
:101FF0000F9211242F933F938F939F93AF93BF938F
:102000008091410790914207A0914307B091440706
:10201000309145070196A11DB11D232F2D5F2D374E
:1020200020F02D570196A11DB11D209345078093E7
:10203000410790934207A0934307B09344078091D0
:102040003D0790913E07A0913F07B0914007019650
:10205000A11DB11D80933D0790933E07A0933F07BC
:10206000B0934007BF91AF919F918F913F912F9176
:102070000F900FBE0F901F9018958FB7F894209176
:1020800041073091420740914307509144078FBF69
:10209000B901CA0108959B01AC017FB7F894809102
:1020A0003D0790913E07A0913F07B091400766B56C
:1020B000A89B05C06F3F19F00196A11DB11D7FBF00
:1020C000BA2FA92F982F8827860F911DA11DB11D0A
:1020D00062E0880F991FAA1FBB1F6A95D1F7BC0148
:1020E0002DC0FFB7F89480913D0790913E07A091D5
:1020F0003F07B0914007E6B5A89B05C0EF3F19F038
:102100000196A11DB11DFFBFBA2FA92F982F8827B7
:102110008E0F911DA11DB11DE2E0880F991FAA1F0E
:10212000BB1FEA95D1F7861B970B885E9340C8F2D8
:10213000215030404040504068517C4F21153105BE
:102140004105510571F60895789484B5826084BD87
:1021500084B5816084BD85B5826085BD85B58160AB
:1021600085BDEEE6F0E0808181608083E1E8F0E00B
:102170001082808182608083808181608083E0E83A
:10218000F0E0808181608083E1EBF0E08081846019
:102190008083E0EBF0E0808181608083E1E9F0E022
:1021A000808182608083808181608083E0E9F0E0CB
:1021B000808181608083E1EAF0E0808182608083B9
:1021C000808181608083E0EAF0E0808181608083AB
:1021D000E1E2F1E0808182608083808181608083A0
:1021E000E0E2F1E0808181608083EAE7F0E08081D5
:1021F000846080838081826080838081816080832D
:102200008081806880831092C10008956F927F92D0
:102210008F929F92AF92BF92CF92DF92EF92FF92F6
:102220000F931F93CF93DF938C01009729F4CB0179
:102230000E946B1A8C01BBC08EEFE82E8FEFF82E38
:10224000E00EF11E4801860E971E8E149F0408F4BE
:10225000ACC0D7014D915C91119746175707B8F064
:102260004530510508F4A3C0CA01049786179707A3
:1022700008F49DC042505040461B570BF401419357
:1022800051936D937C93CF010E94081B90C05B011A
:10229000A41AB50A3801640E751EA091F009B09118
:1022A000F109CC24DD24E0E0F0E047C0A615B70535
:1022B000A9F5CD91DC911197CE0102968A159B0567
:1022C00068F1CE018A199B09029612962C911297F9
:1022D00013963C91059758F0F40122833383CA1971
:1022E000DB09D183C083D7016D937C9309C04E5F16
:1022F0005F4F4C0F5D1FF70151834083C901FC0103
:10230000C114D10431F0D6011396FC93EE931297C9
:102310004EC0F093F109E093F00949C08D919C9172
:102320001197E817F90708F4FC016D0112968C91DA
:10233000129713969C919C01D901109709F0B6CF82
:102340008091EE099091EF0986159705E9F4E6175B
:10235000F707D0F42091B3053091B405211531056C
:1023600041F42DB73EB78091AF059091B005281B81
:10237000390B82169306C8F49092EF098092EE0909
:10238000F7017183608313C0CB010E946B1AEC01CB
:10239000009759F0D7014D915C91B8010E94AD01B1
:1023A000C8010E94081B8E0102C000E010E0C801B5
:1023B000DF91CF911F910F91FF90EF90DF90CF9021
:1023C000BF90AF909F908F907F906F900895382F1F
:1023D000863308F0365320917B00832F86958695AF
:1023E000869590E08170907043E0880F991F4A9520
:1023F000E1F7277F282B20937B0037708091AE0573
:102400008295880F880F807C832B80937C0080913D
:102410007A00806480937A0080917A0086FDFCCFF8
:102420002091780040917900942F80E030E0282BB3
:10243000392BC9010895CF93DF93482F50E0CA018B
:1024400088589E4FFC0134914E5C5E4FFA01849196
:10245000882369F190E0880F991FFC01EC51FF4F30
:10246000A591B491FC01E250FF4FC591D491662330
:1024700051F42FB7F8948C91932F909589238C93D6
:10248000888189230BC0623061F42FB7F8948C9156
:10249000932F909589238C938881832B88832FBFDA
:1024A00006C09FB7F8948C91832B8C939FBFDF91CC
:1024B000CF910895893009F449C08A30A0F484305E
:1024C00051F1853040F4823079F1833000F581306C
:1024D00009F063C026C0873079F1883098F58630DE
:1024E00009F05BC025C08D3009F442C08E3028F45D
:1024F0008B30B1F18C30C0F52DC0803109F442C071
:10250000813109F445C08F3009F047C037C0809150
:1025100080008F7703C0809180008F7D8093800042
:10252000089584B58F7702C084B58F7D84BD0895EA
:102530008091B0008F7703C08091B0008F7D809331
:10254000B0000895809190008F7707C0809190002F
:102550008F7D03C080919000877F809390000895C5
:102560008091A0008F7707C08091A0008F7D03C06D
:102570008091A000877F8093A00008958091200122
:102580008F7703C0809120018F7D80932001089573
:1025900080912001877F809320010895FF920F93FF
:1025A0001F93F62E482F50E0CA0182549E4FFC0123
:1025B0002491CA0188589E4FFC0114914E5C5E4FD5
:1025C000FA0104910023C1F0222311F0822F72DF5F
:1025D000E02FF0E0EE0FFF1FE250FF4FA591B49106
:1025E0009FB7F894FF2021F48C911095812302C0AD
:1025F0008C91812B8C939FBF1F910F91FF90089519
:10260000FC01848195816817790748F40190F08175
:10261000E02D309721F0E60FF71F8081089580E0CC
:1026200008950F931F93CF93DF93EC018B016F5F9E
:102630007F4F88819981EADD009711F480E005C021
:10264000998388831B830A8381E0DF91CF911F9157
:102650000F910895CF93DF93EC0188819981892BA5
:1026600029F08A819B818617970758F4CE01D9DF1C
:10267000882341F08C819D81892B19F4E881F981AF
:10268000108281E0DF91CF910895EF92FF920F9336
:102690001F93CF93DF93EC017B016C817D81E1146B
:1026A000F104B9F04115510591F08A01060F171F89
:1026B000B801D0DF882369F0888199812C813D8120
:1026C000820F931FB7010E94B6011D830C8381E026
:1026D00001C080E0DF91CF911F910F91FF90EF90AB
:1026E0000895CF93DF93EC0188819981009709F0D9
:1026F0008FD7198218821D821C821B821A82DF9159
:10270000CF9108950F931F93182F092F611571050D
:1027100059F0DB010D900020E9F71197A61BB70BCC
:10272000AD01B3DF882319F4812F902FDADF812FD9
:10273000902F1F910F9108950F931F93182F092F1A
:10274000FB0160817181448155819FDF882319F4E9
:10275000812F902FC6DF812F902F1F910F91089509
:10276000EF92FF920F931F93CF93DF93EC017B01C6
:102770008A01BA016FDF882319F4CE01B2DF07C0E6
:102780001D830C8388819981B7010E94B601CE0117
:10279000DF91CF911F910F91FF90EF900895CF930C
:1027A000DF93EC01198218821B821A821D821C821F
:1027B0001E826115710549F0DB010D900020E9F7DB
:1027C0001197A61BB70BAD01CBDFDF91CF91089519
:1027D000CF93DF93EC01198218821B821A821D822B
:1027E0001C821E826115710549F0DB010D900020ED
:1027F000E9F71197A61BB70BAD01B2DFDF91CF91BF
:1028000008950F931F93182F092F6115710551F02B
:10281000DB010D900020E9F71197A61BB70BAD0166
:102820009FDF01C05EDF812F902F1F910F910895D0
:10283000EF92FF920F931F93DF93CF93CDB7DEB745
:1028400062970FB6F894DEBF0FBECDBF8C01CB01EF
:10285000F80111821082138212821582148216826C
:102860007E010894E11CF11CB70150E00E940C02AB
:10287000C801B701C6DF62960FB6F894DEBF0FBE7F
:10288000CDBFCF91DF911F910F91FF90EF900895F1
:10289000CF93DF93EC01FB018617970751F060811E
:1028A00071816115710521F04481558159DF01C0A5
:1028B00018DFCE01DF91CF910895FC0111821082C3
:1028C00013821282158214821682E2CFFC011182D9
:1028D000108213821282158214821682D9CFFC01D3
:1028E0008081918195C6FC018081918191C62F9252
:1028F0003F924F925F926F927F928F929F92AF9290
:10290000BF92CF92DF92EF92FF920F931F93DF93CC
:10291000CF93CDB7DEB73B014C0119012A016E8977
:102920007F89888D998D6A197B098C099D09621AA6
:10293000730A840A950AA401930102D7E218F308E6
:1029400004091509A80197015BD72A0D3B1D4C1DF1
:102950005D1DB901CA01CF91DF911F910F91FF90C9
:10296000EF90DF90CF90BF90AF909F908F907F902F
:102970006F905F904F903F902F900895EF92FF924D
:102980000F931F937B018C016115710581059105E2
:1029900029F420E030E040E050E00AC00E948401C9
:1029A000A80197012DD7AC01CB01DA019C01AD0143
:1029B000B901CA011F910F91FF90EF900895EF9216
:1029C000FF920F931F937B018C016217730784079B
:1029D00095075CF4261B370B480B590BCA01B9014C
:1029E000CDDFE60EF71E081F191FB701C8011F91A2
:1029F0000F91FF90EF900895CF92DF92EF92FF92A8
:102A00000F931F93CF93DF937C016B018A01C0E08A
:102A1000D0E00FC0D6016D916D01D701ED91FC9111
:102A20000190F081E02DC7011995C80FD91F015001
:102A300010400115110571F7CE01DF91CF911F9163
:102A40000F91FF90EF90DF90CF900895EF92FF925B
:102A50000F931F938C01DC01ED91FC910190F081AB
:102A6000E02D6DE019957C01D801ED91FC9101906C
:102A7000F081E02DC8016AE019959C012E0D3F1DE3
:102A8000C9011F910F91FF90EF900895CF93DF93AD
:102A9000EC016115710519F420E030E00FC0DB0195
:102AA0000D900020E9F71197A61BB70BE881F9817B
:102AB0000280F381E02DAD0119959C01C901DF91E0
:102AC000CF910895EF92FF920F931F937C01DEDF69
:102AD0008C01C701BBDF080F191FC8011F910F919F
:102AE000FF90EF900895AF92BF92CF92DF92EF9256
:102AF000FF920F931F93CF93DF935C016B01EE2442
:102B0000FF24C0E0D0E00FC0D501ED91FC91008121
:102B10001181C601BE0174DD682FC501F801199548
:102B2000E80EF91E2196F60184819581C817D90710
:102B300058F3C701DF91CF911F910F91FF90EF9054
:102B4000DF90CF90BF90AF900895EF92FF920F93D8
:102B50001F937C01C8DF8C01C70178DF9C01200F27
:102B6000311FC9011F910F91FF90EF900895CF93EE
:102B7000DF93EADA0E94B30BC4ECD6E10E94B808F6
:102B80002097E1F301D1FACF08951F920F920FB66B
:102B90000F920BB60F9211242F933F934F938F9365
:102BA0009F93EF93FF938091C00082FD1DC04091E1
:102BB000C60020918607309187072F5F3F4F2F7304
:102BC000307080918807909189072817390771F034
:102BD000E0918607F0918707EA5BF84F40833093D6
:102BE00087072093860702C08091C600FF91EF916E
:102BF0009F918F914F913F912F910F900BBE0F900E
:102C00000FBE0F901F90189508951F920F920FB648
:102C10000F920BB60F9211242F933F934F938F93E4
:102C20009F93EF93FF938091C80082FD1DC0409158
:102C3000CE0020910E0830910F082F5F3F4F2F7369
:102C4000307080911008909111082817390771F0A1
:102C5000E0910E08F0910F08E253F84F4083309353
:102C60000F0820930E0802C08091CE00FF91EF91D3
:102C70009F918F914F913F912F910F900BBE0F908D
:102C80000FBE0F901F90189508951F920F920FB6C8
:102C90000F920BB60F9211242F933F934F938F9364
:102CA0009F93EF93FF938091D00082FD1DC04091D0
:102CB000D60020919608309197082F5F3F4F2F73D1
:102CC000307080919808909199082817390771F011
:102CD000E0919608F0919708EA5AF74F40833093B5
:102CE00097082093960802C08091D600FF91EF913B
:102CF0009F918F914F913F912F910F900BBE0F900D
:102D00000FBE0F901F90189508951F920F920FB647
:102D10000F920BB60F9211242F933F934F938F93E3
:102D20009F93EF93FF938091300182FD1DC04091EE
:102D3000360120911E0930911F092F5F3F4F2F73DD
:102D4000307080912009909121092817390771F07E
:102D5000E0911E09F0911F09E252F74F4083309332
:102D60001F0920931E0902C080913601FF91EF9147
:102D70009F918F914F913F912F910F900BBE0F908C
:102D80000FBE0F901F901895E0917209F091730992
:102D9000E05CFF4F8191919120813181821B930BE7
:102DA0008F739070892B09F0EFDEE0919409F09118
:102DB0009509E05CFF4F8191919120813181821BC7
:102DC000930B8F739070892B09F01EDFE091B60989
:102DD000F091B709E05CFF4F8191919120813181A1
:102DE000821B930B8F739070892B09F04DDFE0915C
:102DF000D809F091D909E05CFF4F81919191208130
:102E00003181821B930B8F739070892B09F07CCFDB
:102E100008951F920F920FB60F920BB60F921124C6
:102E20002F933F938F939F93EF93FF932091CA0724
:102E30003091CB078091CC079091CD0728173907A7
:102E400031F48091C1008F7D8093C10014C0E09166
:102E5000CC07F091CD07E657F84F20818091CC0741
:102E60009091CD0701968F7390709093CD078093CA
:102E7000CC072093C600FF91EF919F918F913F91D6
:102E80002F910F900BBE0F900FBE0F901F901895B3
:102E90001F920F920FB60F920BB60F9211242F9321
:102EA0003F938F939F93EF93FF932091520830911C
:102EB000530880915408909155082817390731F428
:102EC0008091C9008F7D8093C90014C0E09154089F
:102ED000F0915508EE5EF74F208180915408909153
:102EE000550801968F7390709093550880935408FD
:102EF0002093CE00FF91EF919F918F913F912F9161
:102F00000F900BBE0F900FBE0F901F9018951F9241
:102F10000F920FB60F920BB60F9211242F933F937F
:102F20008F939F93EF93FF932091DA083091DB0802
:102F30008091DC089091DD082817390731F48091E1
:102F4000D1008F7D8093D10014C0E091DC08F09116
:102F5000DD08E656F74F20818091DC089091DD086E
:102F600001968F7390709093DD088093DC08209316
:102F7000D600FF91EF919F918F913F912F910F90EC
:102F80000BBE0F900FBE0F901F9018951F920F92BF
:102F90000FB60F920BB60F9211242F933F938F937E
:102FA0009F93EF93FF932091620930916309809181
:102FB0006409909165092817390731F4809131012E
:102FC0008F7D8093310114C0E0916409F09165090F
:102FD000EE5DF64F2081809164099091650901961C
:102FE0008F739070909365098093640920933601E4
:102FF000FF91EF919F918F913F912F910F900BBE79
:103000000F900FBE0F901F901895AF92BF92DF9256
:10301000EF92FF920F931F93CF93DF93EC017A010E
:103020008B01DD24403081EE580780E0680780E0A6
:10303000780711F0DD24D39491E0A92EB12CEC890E
:10304000FD89DD2069F0C50108A002C0880F991F25
:103050000A94E2F7808360E079E08DE390E005C0B8
:10306000108260E874E88EE190E0A8019701A6D391
:103070002150304040405040569547953795279510
:1030800080E12030380720F0DD2011F0DD24D7CF9B
:10309000E889F9893083EA89FB89208319A2EE89BE
:1030A000FF89408121E030E0C9010C8C02C0880F0B
:1030B000991F0A94E2F7482B4083EE89FF894081EB
:1030C000C9010D8C02C0880F991F0A94E2F7482BA2
:1030D0004083EE89FF894081C9010E8C02C0880FB0
:1030E000991F0A94E2F7482B4083EE89FF8980817B
:1030F0000F8C02C0220F331F0A94E2F72095282379
:103100002083DF91CF911F910F91FF90EF90DF907F
:10311000BF90AF900895DC011C96ED91FC911D9736
:10312000E05CFF4F2191319180819181281B390B07
:103130002F733070C9010895DC011C96ED91FC914C
:103140001D97E05CFF4F20813181E054F040DF01AA
:10315000AE5BBF4F8D919C9111972817390719F4D9
:103160002FEF3FEF07C08D919C91E80FF91F8081F1
:10317000282F30E0C9010895DC011C96ED91FC91E7
:103180001D97E05CFF4F20813181E054F040DF016A
:10319000AE5BBF4F8D919C9111972817390719F499
:1031A0002FEF3FEF10C08D919C911197E80FF91F01
:1031B00020818D919C91119701968F73907011963B
:1031C0009C938E9330E0C9010895DC0191968C9117
:1031D0009197882339F05496ED91FC915597808111
:1031E00086FFF9CF91961C920895CF93DF93EC015F
:1031F000EE85FF85E05CFF4F20813181E054F04097
:103200002F5F3F4F2F733070DF01AE5BBF4F8D914B
:103210009C91119728173907D1F3E05CFF4F80810B
:103220009181E054F040E80FF91F6083EE85FF853F
:10323000E05CFF4F31832083EE89FF89208181E0AC
:1032400090E00F8C02C0880F991F0A94E2F7282B98
:10325000208381E089A3EC89FD898081806480835B
:1032600081E090E0DF91CF9108951F93109269095A
:103270001092680928EE33E040E050E020936A099C
:1032800030936B0940936C0950936D0969EF75E0B9
:10329000709367096093660986E497E090937309D9
:1032A000809372098AE897E0909375098093740976
:1032B00085EC90E0909377098093760984EC90E018
:1032C000909379098093780980EC90E090937B0942
:1032D00080937A0981EC90E090937D0980937C093A
:1032E00082EC90E090937F0980937E0986EC90E0D9
:1032F000909381098093800914E010938209B3E0D0
:10330000B0938309A7E0A0938409F5E0F0938509C1
:10331000E1E0E093860910928B0910928A092093CC
:103320008C0930938D0940938E0950938F097093C7
:103330008909609388098EEC97E0909395098093B2
:10334000940982E198E090939709809396098DEC17
:1033500090E090939909809398098CEC90E0909379
:103360009B0980939A0988EC90E090939D09809343
:103370009C0989EC90E090939F0980939E098AECC8
:1033800090E09093A1098093A0098EEC90E0909337
:10339000A3098093A2091093A409B093A509A0934F
:1033A000A609F093A709E093A8091092AD0910921D
:1033B000AC092093AE093093AF094093B009509304
:1033C000B1097093AB096093AA0986E598E09093E0
:1033D000B7098093B6098AE998E09093B909809378
:1033E000B80985ED90E09093BB098093BA0984ED0C
:1033F00090E09093BD098093BC0980ED90E090939C
:10340000BF098093BE0981ED90E09093C10980933C
:10341000C00982ED90E09093C3098093C20986EDC4
:1034200090E09093C5098093C4091093C609B093A6
:10343000C709A093C809F093C909E093CA0910927B
:10344000CF091092CE092093D0093093D10940932F
:10345000D2095093D3097093CD096093CC098EEDB6
:1034600098E09093D9098093D80982E299E09093EB
:10347000DB098093DA0985E391E09093DD0980937D
:10348000DC0984E391E09093DF098093DE0980E317
:1034900091E09093E1098093E00981E391E09093BA
:1034A000E3098093E20982E391E09093E509809338
:1034B000E40986E391E09093E7098093E60910938D
:1034C000E809B093E909A093EA09F093EB09E093C6
:1034D000EC091F9108950F931F93CF93DF93BC01C5
:1034E0008230910510F462E070E0E091F009F09113
:1034F000F109A0E0B0E040E050E024C0808191817B
:1035000086179707D0F08617970771F48281938109
:10351000109729F013969C938E9312972CC090933A
:10352000F1098093F00927C04115510519F084175E
:10353000950718F4EF018D01AC01DF0182819381C1
:103540009C01F9013097D1F641155105F9F0CA01F6
:10355000861B970B8430910580F48A819B8101152D
:10356000110521F0F8019383828304C09093F1093F
:103570008093F009FE01329645C0FE01E80FF91F65
:10358000619371930297998388833CC08091EE097F
:103590009091EF09892B41F48091B1059091B2058A
:1035A0009093EF098093EE094091B3055091B405D3
:1035B0004115510541F44DB75EB78091AF0590912B
:1035C000B005481B590B2091EE093091EF092417E3
:1035D0003507B0F4CA01821B930B8617970780F05A
:1035E000AB014E5F5F4F8417950750F0420F531F9A
:1035F0005093EF094093EE09F9016193719302C072
:10360000E0E0F0E0CF01DF91CF911F910F9108959D
:10361000CF93DF939C01009709F48FC0EC012297B0
:103620001B821A826091F0097091F1096115710590
:1036300081F488819981820F931F2091EE09309146
:10364000EF092817390739F5D093EF09C093EE0930
:1036500074C0DB0140E050E0AC17BD0708F1BB834C
:10366000AA83FE0121913191E20FF31FAE17BF072C
:1036700079F48D919C911197280F391F2E5F3F4F40
:103680003983288312968D919C9113979B838A830B
:103690004115510571F4D093F109C093F0094DC063
:1036A00012968D919C911397AD01009711F0DC015A
:1036B000D3CFDA011396DC93CE931297FA012191BE
:1036C0003191E20FF31FCE17DF0769F488819981EA
:1036D000280F391F2E5F3F4FFA01318320838A81E3
:1036E0009B8193838283E0E0F0E0DB0112968D9171
:1036F0009C911397009719F0BC01FD01F6CFAB0127
:103700004E5F5F4FDB018D919C91840F951F20913F
:10371000EE093091EF092817390779F4309729F429
:103720001092F1091092F00902C0138212824250E5
:1037300050405093EF094093EE09DF91CF910895E7
:10374000629FD001739FF001829FE00DF11D649F85
:10375000E00DF11D929FF00D839FF00D749FF00D11
:10376000659FF00D9927729FB00DE11DF91F639FB2
:10377000B00DE11DF91FBD01CF0111240895991B62
:1037800079E004C0991F961708F0961B881F7A9558
:10379000C9F78095089597FB092E07260AD077FD73
:1037A00004D049D006D000201AF4709561957F4F5F
:1037B0000895F6F7909581959F4F0895A1E21A2EEE
:1037C000AA1BBB1BFD010DC0AA1FBB1FEE1FFF1FC5
:1037D000A217B307E407F50720F0A21BB30BE40B15
:1037E000F50B661F771F881F991F1A9469F760955C
:1037F0007095809590959B01AC01BD01CF01089516
:1038000097FB092E05260ED057FD04D0D7DF0AD02E
:10381000001C38F450954095309521953F4F4F4FFF
:103820005F4F0895F6F790958095709561957F4F5D
:103830008F4F9F4F0895AA1BBB1B51E107C0AA1FC2
:10384000BB1FA617B70710F0A61BB70B881F991F41
:103850005A95A9F780959095BC01CD010895EE0F7A
:10386000FF1F0590F491E02D1994803209F0911119
:1038700004C080528F55E0F708959927882708954E
:103880002F923F924F925F926F927F928F929F9270
:10389000AF92BF92CF92DF92EF92FF920F931F935E
:1038A000CF93DF93CDB7DEB7CA1BDB0B0FB6F8940F
:1038B000DEBF0FBECDBF19942A88398848885F843F
:1038C0006E847D848C849B84AA84B984C884DF80C0
:1038D000EE80FD800C811B81AA81B981CE0FD11DA4
:1038E0000FB6F894DEBF0FBECDBFED01089512E014
:1038F000C8E0D2E003C0FE01B4DF2296CA30D1078F
:06390000D1F7F894FFCF9F
:10390600302E3939004552524F5220436F6D6D614A
:103916006E64206E6F742076616C69640041555444
:103926004F2020202020202020202020202020542E
:103936006F67676C65204175746F204D6F646520F5
:103946004F4E206F72204F46460044454255472051
:10395600202020202020202020202020546F676750
:103966006C65204445425547204D6F6465204F4E97
:10397600206F72204F464600532078782020202062
:10398600202020202020202020204368616E6765AB
:103996007320746865205348414B45206E756D62EF
:1039A6006572202864656661756C7420322900474B
:1039B6002078782020202020202020202020202051
:1039C600204368616E676573207468652047524FAF
:1039D6005550206E756D6265722028646566617546
:1039E6006C74203429004420787878202020202008
:1039F60020202020202020204368616E67657320E8
:103A06007468652044454C41592062657477656544
:103A16006E206D6F746F72206D6F76656D656E7456
:103A260073202864656661756C7420353030290012
:103A360052206D696E206D61782020202020202084
:103A460020204368616E6765732074686520726123
:103A56006E646F6D20494E54455256414C5320704A
:103A66006172616D6574657273202864656661753F
:103A76006C7420312037206D696E7574657329006A
:103A86004C20202020202020202020202020202004
:103A960020204C6973742063757272656E746C793C
:103AA600207365742076616C756573004D20787897
:103AB60020202020202020202020202020204D6F84
:103AC600766573204368616E6E656C207878202871
:103AD600312D534552564F5F4E554D4245522900A2
:103AE6005354202020202020202020202020202069
:103AF6002020526F7461746520616C6C207365724E
:103B0600766F7320696E2067726F757073206F66AB
:103B16002078780048454C50202020202020202066
:103B26002020202020205072696E742074686973EA
:103B36002068656C70206D657373616765003D3D37
:103B46003D3D3D3D3D3D3D3D3D3D3D3D3D3D3D3D9F
:103B56003D3D3D3D3D3D3D3D3D3D3D3D3D3D3D3D8F
:103B66003D3D3D3D3D3D3D3D3D3D3D3D3D3D3D3D7F
:103B76003D3D3D3D3D3D3D3D3D3D3D3D3D3D3D3D6F
:103B86003D3D3D3D3D3D3D3D3D3D3D3D3D3D3D009C
:103B960048454C50004C004D00530044004700522D
:103BA600004155544F004445425547005354004D7B
:103BB6006F76696E67206368616E6E656C3A002089
:103BC6000020776974682050494E3A20004D6F7680
:103BD600696E6720616C6C20696E2067726F757004
:103BE60073206F6620004F4B2043005000004E6547
:103BF600787420726F746174696F6E20696E20002C
:103C0600206D696E757465730025303264003A0064
:103C16004F4646004F4E0056657273696F6E3A20E6
:103C260000557074696D653A20004175746F6D6F4B
:103C360064653A20005368616B65206E756D626538
:103C4600723A200047726F75702053697A653A2080
:103C5600004D6F74696F6E2044656C61793A20007F
:103C660052414E444F4D20696E74657276616C7395
:103C76003A2000202D2000526F746174696F6E2007
:103C860064656C61793A2000566F6C746167653AB9
:103C9600200052656164792E0020000100000002B8
:103CA6000058020400010100070001000D00018018
:103CB60000F2090000250026002400270023002822
:103CC600002200290021002A0020002B001F002CC2
:103CD600001E002D001D002E001C002F001B0030B2
:103CE600001A0031001900320018003300170034A2
:103CF600001600350000000000F518FC148B18BCF7
:063D0600189C18E51800EE
:00000001FF
