:1000000004C100002FC100002DC100002BC1000061
:1000100029C1000027C1000025C1000023C1000044
:1000200021C100001FC100001DC100001BC1000054
:1000300019C1000017C1000015C1000013C1000064
:1000400011C100000C944F0F0DC100000BC1000046
:1000500009C1000007C1000005C100000C94921006
:1000600001C100000C9491160C94D517FBC0000040
:10007000F9C00000F7C00000F5C00000F3C00000A8
:100080000C94220FEFC00000EDC00000EBC0000098
:100090000C94D1160C941418E5C00000E3C00000C5
:1000A000E1C00000DFC000000C94F50EDBC00000D2
:1000B000D9C00000D7C00000D5C000000C94C80E05
:1000C000D1C00000CFC00000CDC000000C941117BB
:1000D0000C945318C7C000000C9451170C9492183C
:1000E000C1C0000000002100240027002A002D00CC
:1000F0003000330001010000040107010A01000083
:100100002200250028002B002E00310034000201BF
:100110000000050108010B0100002000230026005B
:1001200029002C002F00320000010000030106010D
:10013000090105050505070508080808020202026D
:100140000A0A080804040404010101010101010173
:100150000303030303030303040707070C0C0C0C3E
:100160000C0C0C0C02020202060606060606060627
:100170000B0B0B0B0B0B0B0B0102102020080810B4
:100180002040102040800201020108040201010207
:1001900004081020408080402010080402018004E0
:1001A000020180402010080402010804020101023B
:1001B0000408102040800102040810204080000044
:1001C000090A02080B0C0D070603040100000000D9
:1001D000000000000000000000000000000000001F
:1001E0000000000000000000000011100F000000DF
:1001F00000000000000000000000000000000000FF
:10020000000000000405011AFF0411241FBECFEFF7
:10021000D1E2DEBFCDBF00E00CBF16E0A0E0B2E04F
:10022000EEE9FAE300E00BBF02C007900D92A035A3
:10023000B107D9F71BBE1AE0A0E5B6E001C01D92D8
:10024000AB33B107E1F712E0C8E0D2E004C0229777
:10025000FE010E94FD1CC430D107C9F70E9483161D
:100260000C94431DCDCEA0E0B0E0E9E3F1E00C94A6
:10027000141DEC01A880B980CA80DB80A114B104F0
:10028000C104D10441F484E2A82E89EDB82E8BE597
:10029000C82E87E0D82EC601B5012DE133EF41E02D
:1002A00050E00E94CC1C27EA31E440E050E00E947C
:1002B0006C1C7B018C01C601B5012DE133EF41E0DF
:1002C00050E00E94CC1CCA01B9012CEE34EF4FEF74
:1002D0005FEF0E946C1C6E0D7F1D801F911F97FFAA
:1002E00004C06150704080409048688379838A835D
:1002F0009B839B01AC015F77B901CA01CDB7DEB723
:10030000EAE00C94301DAFCF85EE95E0ACCF609362
:10031000E5057093E6058093E7059093E805089559
:10032000FC0188279927E89421912032E9F32930AC
:1003300010F02E30C8F32B3239F02D3231F468949E
:1003400003C08AD0820F911D219120532A30C8F317
:100350001EF4909581959F4F0895FB01DC0102C02A
:1003600001900D9241505040D8F70895FB01DC01F7
:1003700001900D920020E1F70895FB01DC0141504E
:10038000504030F08D910190801919F40020B9F798
:10039000881B990B0895FB01DC014150504048F047
:1003A00001900D920020C9F701C01D9241505040AC
:1003B000E0F70895009731F4DA018D919C91009750
:1003C00009F40EC0DC01FB013D912191222319F0BB
:1003D0003217C9F3FACF332331F4DA011D921C929C
:1003E0008827992708951197AF93BF93FB013D91FB
:1003F0002191321771F4332321F48827992711971B
:1004000002C01E921196FA01A193B0839F918F9121
:100410000895222369F7EACFFB019F01E894423057
:10042000C4F04532B4F44A3029F497FB1EF4909599
:1004300081959F4F642F77270E94E71C805D8A3348
:100440000CF0895D8193CB010097A1F716F45DE272
:1004500051931082C90111C27AE0979F902D879F16
:10046000802D910D11240895AEE0B0E0EAE3F2E0B2
:100470000C941A1D0E891F8986E08C831A830983C8
:100480008FEF9FE79E838D839E01265E3F4FCE01B7
:100490000196688D798DA9010AD02F813885020FC8
:1004A000131FF80110822E96E4E00C94361DABE089
:1004B000B0E0EDE5F2E00C940C1D3C012B015A017B
:1004C000FC0117821682838181FD03C06FEF7FEFED
:1004D000B9C19AE0892E1E010894211C311CF30138
:1004E0002381F20123FD859123FF81912F01882330
:1004F00009F4A5C1853239F423FD859123FF81914B
:100500002F01853221F490E0B301C7D1E8CF982FB5
:10051000FF24EE249924FFE1FF15D0F09B3269F00F
:100520009C3228F4903259F0933291F40EC09D32EF
:1005300049F0903369F441E024C052E0F52A84E0A8
:10054000F82A28C098E0F92A25C0E0E1FE2A22C056
:10055000F7FC29C0892F80538A3070F4F6FE05C05D
:10056000989C902C1124980E15C0E89CE02C112426
:10057000E80EF0E2FF2A0EC09E3229F4F6FC5FC1BD
:1005800040E4F42A07C09C3619F450E8F52A02C06A
:10059000983649F4F20123FD959123FF91912F01A3
:1005A000992309F0B8CF892F8554833018F08052F1
:1005B000833038F444E050E0A40EB51E5FE3598365
:1005C0000FC0933631F0933779F0933509F052C06C
:1005D0001FC0F5018081898342E050E0A40EB51E62
:1005E000610101E010E011C0F501C080D180F6FC8E
:1005F00003C06FEF7FEF02C0692D70E042E050E072
:10060000A40EB51EC6012ED18C015FE7F52213C0E2
:10061000F501C080D180F6FC03C06FEF7FEF02C010
:10062000692D70E042E050E0A40EB51EC6010FD166
:100630008C0150E8F52AF3FE06C018C080E290E075
:10064000B3012BD1EA948E2D90E008171907B0F36F
:100650000DC0F601F7FC8591F7FE81916F0190E0E6
:10066000B3011BD1E110EA940150104001151105AE
:1006700081F7E2C0943611F0993661F5F7FE08C0B3
:10068000F501208131814281538184E090E00AC0EC
:10069000F501808191819C01442737FD4095542FBD
:1006A00082E090E0A80EB91E9FE6F92257FF09C02C
:1006B00050954095309521953F4F4F4F5F4FE0E863
:1006C000FE2ACA01B901A1012AE030E012D1D82ED8
:1006D000D2183FC0953729F41F2D1F7E2AE030E045
:1006E0001DC01F2D197F9F3661F0903720F498357B
:1006F00009F0A5C00FC0903739F0983709F09FC0B6
:1007000004C028E030E00AC0106114FD146020E14C
:1007100030E004C014FD166020E132E017FF08C08D
:10072000F501608171818281938144E050E008C0CD
:10073000F50180819181BC0180E090E042E050E0D1
:10074000A40EB51EA101D5D0D82ED2188FE7F82E51
:10075000F122F6FE0BC05EEFF522D91438F4F4FE58
:1007600007C0F2FC05C08FEEF82202C01D2D01C0AB
:10077000192DF4FE0DC0FE01ED0DF11D80818033B9
:1007800019F499EEF92208C01F5FF2FE05C003C0FC
:100790008F2D867809F01F5F0F2DF3FC13C0F0FE3C
:1007A0000EC01E1510F09D2C0AC09D2C9E0C911A97
:1007B0001E2D05C080E290E0B3016FD01F5F1E15B3
:1007C000C8F304C01E1510F4E11A01C0EE2404FFA2
:1007D0000EC080E390E0B30160D002FF1BC001FDBA
:1007E00003C088E790E00EC088E590E00BC0802F42
:1007F000867881F001FF02C08BE201C080E2F7FC45
:100800008DE290E0B30149D005C080E390E0B301F0
:1008100044D09A94D914C8F3DA94F101ED0DF11D86
:10082000808190E0B30139D0DD20B1F705C080E2CE
:1008300090E0B30132D0EA94EE20C9F750CEF30134
:1008400066817781CB012B96E2E10C94281DFC0197
:100850000590615070400110D8F7809590958E0FEB
:100860009F1F0895FC016150704001900110D8F75E
:10087000809590958E0F9F1F0895DC01FC01672FD6
:1008800071917723E1F7329704C07C916D93708367
:100890006291AE17BF07C8F308950F931F93CF93CC
:1008A000DF938C01EB018B8181FF1BC082FF0DC0A8
:1008B0002E813F818C819D812817390764F4E8815E
:1008C000F9810193F983E88306C0E885F985802FD3
:1008D0001995892B31F48E819F8101969F838E8398
:1008E00002C00FEF1FEFC801DF91CF911F910F9151
:1008F0000895FA01AA27283051F1203181F1E894B6
:100900006F936E7F6E5F7F4F8F4F9F4FAF4FB1E002
:100910003ED0B4E03CD0670F781F891F9A1FA11DFD
:10092000680F791F8A1F911DA11D6A0F711D811DFE
:10093000911DA11D20D009F468943F912AE0269FC3
:1009400011243019305D3193DEF6CF010895462F22
:100950004770405D4193B3E00FD0C9F7F6CF462F03
:100960004F70405D4A3318F0495D31FD405241936C
:1009700002D0A9F7EACFB4E0A69597958795779529
:100980006795BA95C9F700976105710508959B01B0
:10099000AC010A2E06945795479537952795BA9539
:1009A000C9F7620F731F841F951FA01D0895CF9371
:1009B000DF9381309105B9F46F5F7F4FE9F481EEE9
:1009C00096E060E072E00E949B14C0E5D6E0CE01A4
:1009D0007ED7239686E0C03BD807C9F780EB96E028
:1009E0000E94791009C0892B39F46F5F7F4F21F481
:1009F00081EE96E00E943B15DF91CF91089580E053
:100A000090E06FEF7FEFD3CF81E090E06FEF7FEF6B
:100A1000CECF8FEA99E064E072E00C942E160F932B
:100A20001F930FEA19E0C8016CE172E00E942E16D4
:100A3000C80169E472E00E942E16C80167E772E0FF
:100A40000E942E16C8016EEA72E00E942E16C8019E
:100A500065EE72E00E942E16C8016FE273E00E94FC
:100A60002E16C8016FE773E00E942E16C8016BEACC
:100A700073E00E942E16C8016FED73E00E942E16DF
:100A8000C80163E174E00E942E16C80166E474E0B8
:100A90000E942E16C80160E774E00E942E161F9176
:100AA0000F9108956F927F928F929F92AF92BF9213
:100AB000CF92DF92EF92FF920F931F93DF93CF932A
:100AC000CDB7DEB76C970FB6F894DEBF0FBECDBFC3
:100AD00038E0A32EB12CAC0EBD1EC50162EC74E053
:100AE0000E949B142FE0622E712C6C0E7D1EC301A0
:100AF00066EC74E00E949B1496E1892E912C8C0E7A
:100B00009D1EC40161ED74E00E949B1486E00E946A
:100B10009D136C0187E00E949D138C017E01089457
:100B2000E11CF11CC70164ED74E00E94B4140C0DCB
:100B30001D1DB80183E0660F771F8A95E1F7601BE2
:100B4000710B6A0D7B1DC7010E946814BC018FEAFE
:100B500099E00E947116C7010E943F15C4010E94CE
:100B60003B15C3010E943B15C5010E943B156C96C5
:100B70000FB6F894DEBF0FBECDBFCF91DF911F91AE
:100B80000F91FF90EF90DF90CF90BF90AF909F902C
:100B90008F907F906F9008950F931F9300EB16E056
:100BA000C8016EED74E04FE055E00E942810C801C6
:100BB00063EE74E040E65AE00E942810C80165EE3A
:100BC00074E049E258E00E942810C80167EE74E022
:100BD0004BE25CE00E942810C80169EE74E04DE031
:100BE0005CE00E942810C8016BEE74E041E05CE01C
:100BF0000E942810C8016DEE74E04AEE5BE00E948E
:100C00002810C8016FEE74E042E25CE00E942810F8
:100C1000C80164EF74E049E15CE00E942810C8015B
:100C20006AEF74E04EE957E00E942810C8016DEFAA
:100C300074E047E35CE00E942810C80169E075E0B9
:100C40000E947C0F1F910F9108954F925F926F92B7
:100C50007F928F929F92AF92BF92CF92DF92EF924C
:100C6000FF920F931F93DF93CF93CDB7DEB76C97AF
:100C70000FB6F894DEBF0FBECDBF582E492E80911F
:100C8000DC068823C9F0852D9C01790100E010E085
:100C900098E0692E712C6C0E7D1E4E010894811C0B
:100CA000911C86E1A82EB12CAC0EBD1EBFE0CB2E50
:100CB000D12CCC0EDD1E4BC0A52CB42CC5014C0193
:100CC0007C0100E010E05FC0C30160E075E00E94BD
:100CD000B414D7016D917C91C4014AE00E94E414E0
:100CE000C301B4010E94681460E175E00E944E14D3
:100CF000BC018FEA99E00E943F16C4010E943B1597
:100D0000C3010E943F15C50162E175E00E94B41461
:100D1000D701ED91FD917D01EE0FFF1FE350FA4FDA
:100D200060817181C6014AE00E94E414C501B601E8
:100D30000E946814BC018FEA99E00E947116C601F6
:100D40000E943B15C5010E943F150F5F1F4F809108
:100D5000ED059091EE05081719070CF4B5CFACCF4F
:100D6000F701819191917F010197FC01EE0FFF1F27
:100D70008E0F9F1FE150FA4F60817181805B994F08
:100D800042D70F5F1F4F8091ED059091EE05081738
:100D9000190734F3CC24DD244DC0D7012D913D91AA
:100DA0007D0121503040C901880F991F820F931F88
:100DB000805B994F60E070E010D60F5F1F4F80910D
:100DC000ED059091EE05081719073CF36091EB05CE
:100DD0007091EC05882777FD8095982F0E94E81088
:100DE000750100E010E012C0F701219131917F01FF
:100DF00021503040C901880F991F820F931F805BDB
:100E0000994F64EB70E0E9D50F5F1F4F8091ED05BE
:100E10009091EE05081719073CF36091EB0570916E
:100E2000EC05882777FD8095982F0E94E81008949C
:100E3000C11CD11C8091E9059091EA05C816D9061C
:100E40001CF000E010E014C0750100E010E0B7CF26
:100E5000D4012D913D914D0121503040C901880FA1
:100E6000991F820F931F805B994F4BD50F5F1F4FC8
:100E70008091ED059091EE05081719074CF36C96DB
:100E80000FB6F894DEBF0FBECDBFCF91DF911F919B
:100E90000F91FF90EF90DF90CF90BF90AF909F9019
:100EA0008F907F906F905F904F9008950F931F9356
:100EB000CF93DF939C018091EF058823D1F1C90185
:100EC0000197FC01EE0FFF1FEF01C80FD91FC05B98
:100ED000D94FE150FA4F60817181CE0194D600E084
:100EE00010E01EC0CE0160E070E077D56091EB05A8
:100EF0007091EC05882777FD8095982F0E94E81067
:100F0000CE0164EB70E069D56091EB057091EC0562
:100F1000882777FD8095982F0E94E8100F5F1F4F5C
:100F20008091E9059091EA0508171907DCF2CE01D6
:100F3000E8D4DF91CF911F910F910895AF92BF92A6
:100F4000CF92DF92EF92FF920F931F93DF93CF9395
:100F5000CDB7DEB72E970FB6F894DEBF0FBECDBF6C
:100F6000CDB6DEB68091ED059091EE05880F991F04
:100F70002DB73EB7281B390B0FB6F8943EBF0FBEF6
:100F80002DBF8DB79EB701965C018091DC0688234A
:100F900021F138E0E32EF12CEC0EFD1EC7016EE1CD
:100FA00075E00E94B4146091ED057091EE058E011C
:100FB0000F5F1F4FC8014AE00E94E414C701B80147
:100FC0000E946814BC018FEA99E00E947116C80162
:100FD0000E943B15C7010E943F1500E010E00CC0C5
:100FE0002D933D9301962F5F3F4F8E179F07C4F3BC
:100FF000C5012BDE0F5F1F4FE091ED05F091EE056F
:1010000080E290E0BF010E94971C061717075CF46E
:10101000D5010E9F90010F9F300D1E9F300D1124A2
:1010200080E090E0E0CF0FB6F894DEBE0FBECDBEFC
:101030002E960FB6F894DEBF0FBECDBFCF91DF91D5
:101040001F910F91FF90EF90DF90CF90BF90AF90E6
:1010500008958F929F92AF92BF92CF92DF92EF92BC
:10106000FF920F931F93DF93CF93CDB7DEB76597B2
:101070000FB6F894DEBF0FBECDBF80EB96E040D731
:10108000009711F04DD98C01F8013197E032F1054C
:1010900008F03FC0EE0FFF1FE150FA4F80809180B3
:1010A000C80104DF58E0A52EB12CAC0EBD1EC50151
:1010B00067E375E00E94B4146E010894C11CD11C52
:1010C000C601B8014AE00E94E414C501B6010E94BD
:1010D00068146CE375E00E944E147C018E01015F80
:1010E0001F4FC801B4014AE00E94E414C701B801CF
:1010F0000E946814BC018FEA99E00E947116C80131
:101100000E943B15C6010E943B15C5010E943F1578
:1011100003C08EE395E07DDC65960FB6F894DEBFE4
:101120000FBECDBFCF91DF911F910F91FF90EF9038
:10113000DF90CF90BF90AF909F908F900895DF92F7
:10114000EF92FF920F931F930E94DA107B018C01A4
:10115000DD248091DD069091DE06A091DF06B0913E
:10116000E006E81AF90A0A0B1B0B6091F50570916D
:10117000F605882777FD8095982F20E63AEE40E027
:1011800050E00E946C1CE616F7060807190710F0DD
:10119000DD24D3948D2D1F910F91FF90EF90DF9060
:1011A0000895AF92BF92CF92DF92EF92FF920F938A
:1011B0001F93DF93CF93CDB7DEB72E970FB6F8947A
:1011C000DEBF0FBECDBF6091F1057091F20588279B
:1011D00077FD8095982F2091F3053091F4054427F1
:1011E00037FD4095542F0E94AB15D62EC72E5601C1
:1011F000E1D76093DD067093DE068093DF0690935F
:10120000E0068091DC06882331F178E0E72EF12CAE
:10121000EC0EFD1EC7016FE375E00E94B4148E0151
:101220000F5F1F4FC8016D2D7C2D4AE00E94E41412
:10123000C701B8010E94681461E575E00E944E1470
:10124000BC018FEA99E00E947116C8010E943B150B
:10125000C7010E943F158B2D9A2D2E960FB6F8943C
:10126000DEBF0FBECDBFCF91DF911F910F91FF90D9
:10127000EF90DF90CF90BF90AF90089580EB96E015
:1012800049D68091F005882349F059DF882331F051
:1012900088DF9093F6058093F50550CE08952F9240
:1012A0003F924F925F926F927F928F929F92AF92F6
:1012B000BF92CF92DF92EF92FF920F931F93DF9333
:1012C000CF93CDB7DEB7A0970FB6F894DEBF0FBEB1
:1012D000CDBF8D8F9E8F6ED728EE33E040E050E07B
:1012E0000E94AA1C59016A01C601B5012CE330E035
:1012F00040E050E00E94AA1C79018A01C801B701B0
:101300002CE330E040E050E00E94AA1C322E232E55
:101310004F8F58A38DB79EB708970FB6F8949EBF0E
:101320000FBE8DBF6DB67EB60894611C711C9EEE1B
:10133000492E96E0592EADB7BEB712965C924E92EA
:1013400011978AE5882E85E0982EF3019382828298
:10135000C801B7012CE330E040E050E00E946C1C73
:10136000A61AB70AC80AD90AD3011496AD92BD923B
:10137000CD92DC92179778D8CDB6DEB60894C11C12
:10138000D11CBBEE6B2EB6E07B2EEDB7FEB77282A2
:101390006182D60113969C928E921297632D722DC4
:1013A0008F8D98A12CE330E040E050E00E946C1C4F
:1013B000E61AF70A080B190BF601E482F582068398
:1013C000178352D8EDB7FEB7319608EE16E0ADB7E9
:1013D000BEB712961C930E93119793828282348229
:1013E0002582BF8DB68388A187833ED8ADB7BEB7AF
:1013F00018960FB6F894BEBF0FBEADBF4E0108944D
:10140000811C911CC401B8010E949B14A8E0AA2E63
:10141000B12CAC0EBD1EC501B4010E943215FFE512
:10142000EF2EF5E0FF2EC501B7010E944E148C018E
:10143000EFE0CE2ED12CCC0EDD1EC601B3010E94F2
:101440009B14C801B6010E946814B7010E944E1493
:101450007C018E010A5E1F4FC801B2010E949B14DD
:10146000C701B8010E946814BC018D8D9E8D0E9439
:101470002915C8010E943B15C6010E943B15C501F4
:101480000E943F15C4010E943B158D8D9E8DA09634
:101490000FB6F894DEBF0FBECDBFCF91DF911F9185
:1014A0000F91FF90EF90DF90CF90BF90AF909F9003
:1014B0008F907F906F905F904F903F902F90089506
:1014C0004F925F926F927F928F929F92AF92BF9254
:1014D000CF92DF92EF92FF920F931F93DF93CF9300
:1014E000CDB7DEB7C558D0400FB6F894DEBF0FBEFB
:1014F000CDBF18E7612E712C6C0E7D1EC30162EC0E
:1015000074E00E949B14B7E04B2E512C460C571CE4
:10151000C20161ED74E00E949B148E010F5F1F4FAA
:10152000C80161E675E00E94B414C80161EE76E07E
:101530000E946814BC01AFEA8A2EA9E09A2EC40169
:101540000E947116C8010E943F15FFE0EF2EF12C9A
:10155000EC0EFD1EC7016BE675E00E94B4148E010F
:10156000085F1F4FC8019BDEC701B8010E946814C5
:10157000BC01C4010E947116C8010E943B15C7013D
:101580000E943F158E010A5E1F4FC80164E775E097
:101590000E94B4146091F00587E0689FB0011124A7
:1015A000660D771DC8010E946814BC01C4010E9429
:1015B0007116C8010E943F15E4E2EE2EF12CEC0EEC
:1015C000FD1EC7016FE775E00E94B4148E01035E33
:1015D0001F4F6091E9057091EA05C8014AE00E9439
:1015E000E414C701B8010E946814BC01C4010E9440
:1015F0007116C8010E943B15C7010E943F1572E396
:10160000E72EF12CEC0EFD1EC7016EE875E00E947E
:10161000B4148E01055D1F4F6091ED057091EE05CC
:10162000C8014AE00E94E414C701B8010E9468148E
:10163000BC01C4010E947116C8010E943B15C7017C
:101640000E943F1560E4E62EF12CEC0EFD1EC70152
:101650006BE975E00E94B4148E01075C1F4F609126
:10166000EB057091EC05C8014AE00E94E414C70143
:10167000B8010E946814BC01C4010E947116C8011F
:101680000E943B15C7010E943F155EE4A52EB12CB8
:10169000AC0EBD1EC5016AEA75E00E94B41447E4B1
:1016A000E42EF12CEC0EFD1E6091F1057091F20517
:1016B000C7014AE00E94E414C501B7010E94681402
:1016C0006DEB75E00E944E146C018E010B5A1F4F9A
:1016D0006091F3057091F405C8014AE00E94E4149A
:1016E000C601B8010E946814BC01C4010E947116B1
:1016F000C8010E943B15C7010E943B15C5010E940D
:101700003F1533E6E32EF12CEC0EFD1EC70161EC14
:1017100075E00E94B4148E01045A1F4F6091EB05CE
:101720007091EC05C8014AE00E94E414C701B801B9
:101730000E946814BC01C4010E947116C8010E9475
:101740003B15C7010E943F1521E7E22EF12CEC0E5C
:10175000FD1EC70162ED75E00E94B41480E0D4D68E
:10176000BC018E0106591F4FC8014AE00E94E414D3
:10177000C701B8010E946814BC01C4010E9471161F
:10178000C8010E943B15C7010E943F158BD9C401B7
:1017900060E774E00E942E16C2010E943B15C3014F
:1017A0000E943B15CB57DF4F0FB6F894DEBF0FBE3C
:1017B000CDBFCF91DF911F910F91FF90EF90DF9000
:1017C000CF90BF90AF909F908F907F906F905F90E1
:1017D0004F90089580EB96E093D3009731F00E94EC
:1017E00090019093F2058093F10580EB96E088D309
:1017F000009731F00E9490019093F4058093F305D7
:101800005FCE80EB96E07CD3009731F00E94900190
:101810009093EE058093ED0553CE80EB96E070D368
:10182000009731F00E9490019093EC058093EB05B6
:1018300047CE90E08091DC06882309F491E09093F4
:10184000DC063ECE90E08091F005882309F491E01B
:101850009093F00535CE80EB96E052D3009731F0AF
:101860000E9490019093EA058093E90529CE80EBD0
:1018700096E046D30E9490018130910531F486E0D4
:1018800061E029D787E061E007C0892B31F486E069
:1018900060E021D787E060E01ED712CE8FEA99E0A2
:1018A00040E051EE60E070E00E94D11875D980915F
:1018B000F705882331F086E061E00DD787E061E02D
:1018C0000AD78FEA99E06CED75E00C942E16FC01B6
:1018D0008091F106803390F480838F5F8093F106CE
:1018E000815090E0FC01EE0FFF1FE80FF91FEE5052
:1018F000F94F88EB9BE09283818308958FEF80837B
:101900000895DC018C9190E0FC01EE0FFF1FE80FC1
:10191000F91FEE50F94F80818F7B80838C916CE0B2
:101920000E948B1C90E0AC01440F551F480F591FBB
:10193000440F551F440F551F20E030E0C901840FAC
:10194000951FFC01EE0FFF1FE80FF91FEE50F94F36
:10195000808186FD05C02F5F3F4F2C30310571F728
:101960000895FC0120812033B8F58181992787FDF6
:10197000909548E850E0481B590B440F551F440F01
:10198000551F6417750784F08281992787FD90950C
:1019900048E552E0481B590B440F551F440F551F93
:1019A000641775070CF4AB0142505040CA01AA27D6
:1019B00097FDA095BA2F880F991FAA1FBB1F4FB77D
:1019C000F89430E0F901EE0FFF1FE20FF31FEE5025
:1019D000F94F928381834FBF0895AF92BF92CF9208
:1019E000DF92EF92FF920F931F93CF93DF93EC015F
:1019F0009B0182E0603278070CF048C077FF03C09B
:101A000020E030E005C0653B710514F024EB30E0C8
:101A100000D00F92B901882777FD8095982F2981F2
:101A2000332727FD3095E8E8AE2EB12CA21AB30A71
:101A3000AA0CBB1CAA0CBB1CCC24B7FCC094DC2C8D
:101A4000EA81FF27E7FDF09528E532E02E1B3F0BEA
:101A5000220F331F220F331F442737FD4095542F89
:101A6000EDB7FEB7218332834383548320E030E017
:101A700040E050E004EBE02EF12C012D112D0E94EE
:101A800043159B010F900F900F900F90CE01B9015D
:101A900068DFDF91CF911F910F91FF90EF90DF9062
:101AA000CF90BF90AF900895CF92DF92EF92FF92C8
:101AB0001F93CF93DF93EC01162F7A016901888180
:101AC000803308F092C0862F61E052D5888190E083
:101AD000FC01EE0FFF1FE80FF91FEE50F94F1F73C7
:101AE0008081807C812B808380E292E08E199F0927
:101AF00064E070E00E94971C698380E699E08C198D
:101B00009D0964E070E00E94971C6A83A8818A2F77
:101B10006CE00E948B1C682F70E0AB01440F551FD6
:101B2000460F571F440F551F440F551F20E030E04C
:101B3000C901840F951FFC01EE0FFF1FE80FF91F6D
:101B4000EE50F94F808186FD44C02F5F3F4F2C300F
:101B5000310571F753C01092800082E080938100BC
:101B60001092850010928400B19A80916F0082607B
:101B700080936F002EC06230710569F4109290005E
:101B800082E080939100109295001092940088BB9F
:101B9000809371001EC06330710569F41092A0003B
:101BA00082E08093A1001092A5001092A40089BB4E
:101BB000809372000EC0672B61F41092200182E0C6
:101BC0008093210110922501109224018ABB8093F9
:101BD00073008A2F90E0FC01EE0FFF1FE80FF91F42
:101BE000EE50F94F8081806480838881DF91CF91AE
:101BF0001F91FF90EF90DF90CF90089561307105B5
:101C000009F0B9CFA8CF40E252E020E639E04CCF4E
:101C1000EF92FF920F931F93CF93DF938B017A0183
:101C2000EC01DC01AE57B84F8C9187FF04C0FB017B
:101C30001182108236C0AE01440F551F4C0F5D1F3C
:101C4000440F551F440F551F2C91332727FD309506
:101C5000240F351F8091F10690E0281739070CF505
:101C60008C91992787FD9095840F951FFC01EE0FAD
:101C7000FF1FE80FF91FEE50F94F808186FF11C05A
:101C80008C91992787FD9095840F951FFC01EE0F8D
:101C9000FF1FE80FF91FEE50F94F80818F7360E04E
:101CA0001AD5DE01AE57B84F8C918F5F8C93AE0181
:101CB000440F551F4C0F5D1F440F551F440F551FF8
:101CC0002C91332727FD3095240F351F8091F10685
:101CD00090E0281739070CF04CC08C918C300CF038
:101CE00048C0F801208131818C91992787FD90951A
:101CF000840F951FFC01EE0FFF1FE80FF91FEE5038
:101D0000F94F81819281280F391FF7013183208398
:101D10008C91992787FD9095840F951FFC01EE0FFC
:101D2000FF1FE80FF91FEE50F94F808186FF29C091
:101D30008C91992787FD9095840F951FFC01EE0FDC
:101D4000FF1FE80FF91FEE50F94F80818F7361E09C
:101D5000C2D417C080E49CE904C0F801808191815D
:101D60000496F70191838083CE57D84F8FEF8883F5
:101D700008C0F80180819181049680549C4950F3F9
:101D8000ECCFDF91CF911F910F91FF90EF900895CD
:101D90001F920F920FB60F920BB60F9211242F9332
:101DA0003F934F935F936F937F938F939F93AF93E3
:101DB000BF93EF93FF9380E090E064E271E048E22C
:101DC00051E026DFFF91EF91BF91AF919F918F91ED
:101DD0007F916F915F914F913F912F910F900BBE2B
:101DE0000F900FBE0F901F9018951F920F920FB675
:101DF0000F920BB60F9211242F933F934F935F9343
:101E00006F937F938F939F93AF93BF93EF93FF93C2
:101E100083E090E064EA70E048EA50E0F9DEFF9188
:101E2000EF91BF91AF919F918F917F916F915F9152
:101E30004F913F912F910F900BBE0F900FBE0F90BF
:101E40001F9018951F920F920FB60F920BB60F921C
:101E500011242F933F934F935F936F937F938F93AF
:101E60009F93AF93BF93EF93FF9382E090E064E979
:101E700070E048E950E0CCDEFF91EF91BF91AF9167
:101E80009F918F917F916F915F914F913F912F9192
:101E90000F900BBE0F900FBE0F901F9018951F92C2
:101EA0000F920FB60F920BB60F9211242F933F9300
:101EB0004F935F936F937F938F939F93AF93BF9352
:101EC000EF93FF9381E090E064E870E048E850E031
:101ED0009FDEFF91EF91BF91AF919F918F917F9185
:101EE0006F915F914F913F912F910F900BBE0F908B
:101EF0000FBE0F901F901895FC01748363830895A3
:101F0000BC01AC01465D5F4F80E090E06B5F7F4FAE
:101F10000C94DA012F923F924F925F926F927F92D0
:101F20008F929F92AF92BF92CF92DF92EF92FF92E9
:101F30000F931F93CF93DF938C0128E0222E312C37
:101F4000280E391E95E0492E512C400E511E8AE272
:101F5000682E712C600E711E57C08FEA99E00E94A6
:101F60008819F82ED80117968C91F816B1F5C10191
:101F7000B201A3010E94DA015C01009739F1F80176
:101F80008281882E9924CC24DD24EE24FF2418C0DD
:101F9000D801CD91DC91CE0DDF1DC501BE0148E019
:101FA00050E00E94BD01EBE0F0E0EE0EFF1E009756
:101FB00021F4E985FA85199509C00894C11CD11C42
:101FC000C814D9042CF329C0C5011995D801189655
:101FD0001C92189799961C9217C08F2D992787FDF0
:101FE00090950E94031D892B79F0F80181A580321C
:101FF00058F4E80FF11DF0868F5FD80199968C9305
:10200000F801E80FF11D10868FEA99E00E94571938
:10201000181619060CF4A1CF08C0D8011396ED913B
:10202000FC911497309781F6D1CFDF91CF911F911A
:102030000F91FF90EF90DF90CF90BF90AF909F9067
:102040008F907F906F905F904F903F902F9008956A
:10205000AF92BF92CF92DF92EF92FF920F931F93B6
:102060008C016B015A01DC0112968C91129790E061
:1020700001963BE0E32EF12C8E9DB0018F9D700DFB
:102080009E9D700D11248D919C915DD19C01F80154
:102090009183808382814BE0849FC0011124820F51
:1020A000931FB60148E050E00E94CB01D801129680
:1020B0008C91129790E0FC01EE9DC001EF9D900D78
:1020C000FE9D900D1124ED91FC911197E80FF91FE1
:1020D000B286A18612968C9112978F5F12968C937E
:1020E0001F910F91FF90EF90DF90CF90BF90AF9036
:1020F00008950F931F938C01FC01118210821282AC
:10210000148213828AE0878313A612A6C80105965B
:1021100063EE75E00E94B601F801108611A61F91CA
:102120000F9108951F920F920FB60F9211242F93C3
:102130003F938F939F93AF93BF9380918A07909122
:102140008B07A0918C07B0918D0730918E07019677
:10215000A11DB11D232F2D5F2D3720F02D57019686
:10216000A11DB11D20938E0780938A0790938B0742
:10217000A0938C07B0938D07809186079091870775
:10218000A0918807B09189070196A11DB11D809388
:10219000860790938707A0938807B0938907BF911C
:1021A000AF919F918F913F912F910F900FBE0F9004
:1021B0001F9018958FB7F89420918A0730918B075C
:1021C00040918C0750918D078FBFB901CA010895C6
:1021D0009B01AC017FB7F8948091860790918707A7
:1021E000A0918807B091890766B5A89B05C06F3F8D
:1021F00019F00196A11DB11D7FBFBA2FA92F982FED
:102200008827860F911DA11DB11D62E0880F991FBF
:10221000AA1FBB1F6A95D1F7BC012DC0FFB7F89468
:102220008091860790918707A0918807B0918907D0
:10223000E6B5A89B05C0EF3F19F00196A11DB11DA1
:10224000FFBFBA2FA92F982F88278E0F911DA11D90
:10225000B11DE2E0880F991FAA1FBB1FEA95D1F7B5
:10226000861B970B885E9340C8F221503040404057
:10227000504068517C4F211531054105510571F6DB
:102280000895789484B5826084BD84B5816084BDEE
:1022900085B5826085BD85B5816085BDEEE6F0E0DF
:1022A000808181608083E1E8F0E01082808182603B
:1022B0008083808181608083E0E8F0E080818160BC
:1022C0008083E1EBF0E0808184608083E0EBF0E0EC
:1022D000808181608083E1E9F0E080818260808399
:1022E000808181608083E0E9F0E08081816080838B
:1022F000E1EAF0E080818260808380818160808378
:10230000E0EAF0E0808181608083E1E2F1E08081B9
:1023100082608083808181608083E0E2F1E080815F
:1023200081608083EAE7F0E080818460808380813F
:1023300082608083808181608083808180688083E7
:102340001092C10008956F927F928F929F92AF92E8
:10235000BF92CF92DF92EF92FF920F931F93CF9392
:10236000DF938C01009729F4CB010E94371B8C016D
:10237000BBC08EEFE82E8FEFF82EE00EF11E480165
:10238000860E971E8E149F0408F4ACC0D7014D91A1
:102390005C91119746175707B8F04530510508F47E
:1023A000A3C0CA0104978617970708F49DC042503E
:1023B0005040461B570BF401419351936D937C930E
:1023C000CF010E94D41B90C05B01A41AB50A38014A
:1023D000640E751EA091390AB0913A0ACC24DD240E
:1023E000E0E0F0E047C0A615B705A9F5CD91DC9176
:1023F0001197CE0102968A159B0568F1CE018A19C4
:102400009B09029612962C91129713963C91059770
:1024100058F0F40122833383CA19DB09D183C083C6
:10242000D7016D937C9309C04E5F5F4F4C0F5D1FCA
:10243000F70151834083C901FC01C114D10431F07B
:10244000D6011396FC93EE9312974EC0F0933A0A7E
:10245000E093390A49C08D919C911197E817F907CB
:1024600008F4FC016D0112968C91129713969C91C1
:102470009C01D901109709F0B6CF8091370A90914D
:10248000380A86159705E9F4E617F707D0F4209186
:10249000FD053091FE052115310541F42DB73EB7FC
:1024A0008091F9059091FA05281B390B8216930645
:1024B000C8F49092380A8092370AF70171836083DA
:1024C00013C0CB010E94371BEC01009759F0D701D4
:1024D0004D915C91B8010E94AD01C8010E94D41BCE
:1024E0008E0102C000E010E0C801DF91CF911F9182
:1024F0000F91FF90EF90DF90CF90BF90AF909F90A3
:102500008F907F906F900895382F863308F0365360
:1025100020917B00832F86958695869590E081702B
:10252000907043E0880F991F4A95E1F7277F282B89
:1025300020937B0037708091F8058295880F880F73
:10254000807C832B80937C0080917A0080648093D0
:102550007A0080917A0086FDFCCF2091780040912E
:102560007900942F80E030E0282B392BC9010895A1
:10257000CF93DF93482F50E0CA0188589E4FFC014B
:1025800034914E5C5E4FFA018491882369F190E0AA
:10259000880F991FFC01EC51FF4FA591B491FC01EC
:1025A000E250FF4FC591D491662351F42FB7F894B0
:1025B0008C91932F909589238C93888189230BC0CC
:1025C000623061F42FB7F8948C91932F9095892302
:1025D0008C938881832B88832FBF06C09FB7F89484
:1025E0008C91832B8C939FBFDF91CF91089589307D
:1025F00009F449C08A30A0F4843051F1853040F4A8
:10260000823079F1833000F5813009F063C026C053
:10261000873079F1883098F5863009F05BC025C0A5
:102620008D3009F442C08E3028F48B30B1F18C30FB
:10263000C0F52DC0803109F442C0813109F445C094
:102640008F3009F047C037C0809180008F7703C07A
:10265000809180008F7D80938000089584B58F776E
:1026600002C084B58F7D84BD08958091B0008F77BE
:1026700003C08091B0008F7D8093B0000895809159
:1026800090008F7707C0809190008F7D03C080916C
:102690009000877F8093900008958091A0008F77AD
:1026A00007C08091A0008F7D03C08091A000877F2C
:1026B0008093A0000895809120018F7703C08091BE
:1026C00020018F7D80932001089580912001877FD4
:1026D000809320010895FF920F931F93F62E482FA9
:1026E00050E0CA0182549E4FFC012491CA018858CF
:1026F0009E4FFC0114914E5C5E4FFA010491002341
:10270000C1F0222311F0822F72DFE02FF0E0EE0FF4
:10271000FF1FE250FF4FA591B4919FB7F894FF209F
:1027200021F48C911095812302C08C91812B8C9384
:102730009FBF1F910F91FF9008950F931F93482FF4
:1027400050E0CA0182549E4FFC012491CA0188586E
:102750009E4FFC0104914E5C5E4FFA0114911123CF
:1027600019F420E030E014C0222311F0822F3FDF63
:10277000812F90E0880F991F885E9E4FFC01A591E4
:10278000B4918C9120E030E0802311F021E030E022
:10279000C9011F910F910895FC01848195816817EB
:1027A000790748F40190F081E02D309721F0E60F91
:1027B000F71F8081089580E008950F931F93CF93B2
:1027C000DF93EC018B016F5F7F4F88819981BBDDC7
:1027D000009711F480E005C0998388831B830A83E6
:1027E00081E0DF91CF911F910F910895CF93DF93F7
:1027F000EC0188819981892B29F08A819B81861738
:10280000970758F4CE01D9DF882341F08C819D8150
:10281000892B19F4E881F981108281E0DF91CF9151
:102820000895EF92FF920F931F93CF93DF93EC01E4
:102830007B016C817D81E114F104B9F041155105F2
:1028400091F08A01060F171FB801D0DF882369F0C5
:10285000888199812C813D81820F931FB7010E944D
:10286000B6011D830C8381E001C080E0DF91CF9130
:102870001F910F91FF90EF900895CF93DF93EC019C
:1028800088819981009709F08FD7198218821D825B
:102890001C821B821A82DF91CF9108950F931F93A0
:1028A000182F092F6115710559F0DB010D900020DB
:1028B000E9F71197A61BB70BAD01B3DF882319F415
:1028C000812F902FDADF812F902F1F910F91089584
:1028D0000F931F93182F092FFB0160817181448191
:1028E00055819FDF882319F4812F902FC6DF812F18
:1028F000902F1F910F910895EF92FF920F931F93C6
:10290000CF93DF93EC017B018A01BA016FDF88234B
:1029100019F4CE01B2DF07C01D830C838881998131
:10292000B7010E94B601CE01DF91CF911F910F91A7
:10293000FF90EF900895CF93DF93EC0119821882F6
:102940001B821A821D821C821E826115710549F04C
:10295000DB010D900020E9F71197A61BB70BAD0125
:10296000CBDFDF91CF910895CF93DF93EC011982F4
:1029700018821B821A821D821C821E8261157105BB
:1029800049F0DB010D900020E9F71197A61BB70B6A
:10299000AD01B2DFDF91CF9108950F931F93182FF0
:1029A000092F6115710551F0DB010D900020E9F749
:1029B0001197A61BB70BAD019FDF01C05EDF812F12
:1029C000902F1F910F910895EF92FF920F931F93F5
:1029D000DF93CF93CDB7DEB762970FB6F894DEBF23
:1029E0000FBECDBF8C01CB01F80111821082138282
:1029F00012821582148216827E010894E11CF11C59
:102A0000B70150E00E940C02C801B701C6DF629610
:102A10000FB6F894DEBF0FBECDBFCF91DF911F91EF
:102A20000F91FF90EF900895CF93DF93EC01FB019E
:102A30008617970751F0608171816115710521F04A
:102A40004481558159DF01C018DFCE01DF91CF915C
:102A50000895FC0111821082138212821582148261
:102A60001682E2CFFC01118210821382128215823B
:102A700014821682D9CFFC018081918195C6FC0118
:102A80008081918191C62F923F924F925F926F9277
:102A90007F928F929F92AF92BF92CF92DF92EF92EE
:102AA000FF920F931F93DF93CF93CDB7DEB73B0118
:102AB0004C0119012A016E897F89888D998D6A19C7
:102AC0007B098C099D09621A730A840A950AA4017C
:102AD000930102D7E218F30804091509A801970128
:102AE0005BD72A0D3B1D4C1D5D1DB901CA01CF915D
:102AF000DF911F910F91FF90EF90DF90CF90BF90EB
:102B0000AF909F908F907F906F905F904F903F908D
:102B10002F900895EF92FF920F931F937B018C01EA
:102B2000611571058105910529F420E030E040E050
:102B300050E00AC00E948401A80197012DD7AC0182
:102B4000CB01DA019C01AD01B901CA011F910F91BE
:102B5000FF90EF900895EF92FF920F931F937B01E8
:102B60008C0162177307840795075CF4261B370BEB
:102B7000480B590BCA01B901CDDFE60EF71E081F3D
:102B8000191FB701C8011F910F91FF90EF90089591
:102B9000CF92DF92EF92FF920F931F93CF93DF9329
:102BA0007C016B018A01C0E0D0E00FC0D6016D91BD
:102BB0006D01D701ED91FC910190F081E02DC701ED
:102BC0001995C80FD91F015010400115110571F753
:102BD000CE01DF91CF911F910F91FF90EF90DF9089
:102BE000CF900895EF92FF920F931F938C01DC0119
:102BF000ED91FC910190F081E02D6DE019957C0143
:102C0000D801ED91FC910190F081E02DC8016AE0BE
:102C100019959C012E0D3F1DC9011F910F91FF9029
:102C2000EF900895CF93DF93EC016115710519F4CE
:102C300020E030E00FC0DB010D900020E9F7119794
:102C4000A61BB70BE881F9810280F381E02DAD016D
:102C500019959C01C901DF91CF910895EF92FF92E0
:102C60000F931F937C01DEDF8C01C701BBDF080FD0
:102C7000191FC8011F910F91FF90EF900895AF9217
:102C8000BF92CF92DF92EF92FF920F931F93CF9359
:102C9000DF935C016B01EE24FF24C0E0D0E00FC0A5
:102CA000D501ED91FC9100811181C601BE0174DD59
:102CB000682FC501F8011995E80EF91E2196F60155
:102CC00084819581C817D90758F3C701DF91CF9147
:102CD0001F910F91FF90EF90DF90CF90BF90AF903A
:102CE0000895EF92FF920F931F937C01C8DF8C0130
:102CF000C70178DF9C01200F311FC9011F910F917F
:102D0000FF90EF900895CF93DF93BBDA0E944E0CB3
:102D1000C0E9D7E10E943E092097E1F301D1FACF43
:102D200008951F920F920FB60F920BB60F921124B7
:102D30002F933F934F938F939F93EF93FF938091A4
:102D4000C00082FD1DC04091C6002091CF07309188
:102D5000D0072F5F3F4F2F7330708091D107909134
:102D6000D2072817390771F0E091CF07F091D0070B
:102D7000E157F84F40833093D0072093CF0702C02C
:102D80008091C600FF91EF919F918F914F913F915C
:102D90002F910F900BBE0F900FBE0F901F901895A4
:102DA00008951F920F920FB60F920BB60F92112437
:102DB0002F933F934F938F939F93EF93FF93809124
:102DC000C80082FD1DC04091CE002091570830916F
:102DD00058082F5F3F4F2F733070809159089091A2
:102DE0005A082817390771F0E0915708F0915808F0
:102DF000E95EF74F4083309358082093570802C08C
:102E00008091CE00FF91EF919F918F914F913F91D3
:102E10002F910F900BBE0F900FBE0F901F90189523
:102E200008951F920F920FB60F920BB60F921124B6
:102E30002F933F934F938F939F93EF93FF938091A3
:102E4000D00082FD1DC04091D6002091DF08309156
:102E5000E0082F5F3F4F2F7330708091E108909111
:102E6000E2082817390771F0E091DF08F091E008D7
:102E7000E156F74F40833093E0082093DF0802C00B
:102E80008091D600FF91EF919F918F914F913F914B
:102E90002F910F900BBE0F900FBE0F901F901895A3
:102EA00008951F920F920FB60F920BB60F92112436
:102EB0002F933F934F938F939F93EF93FF93809123
:102EC000300182FD1DC0409136012091670930918B
:102ED00068092F5F3F4F2F7330708091690990917F
:102EE0006A092817390771F0E0916709F0916809BC
:102EF000E95DF64F4083309368092093670902C06B
:102F000080913601FF91EF919F918F914F913F9169
:102F10002F910F900BBE0F900FBE0F901F90189522
:102F2000E091BB09F091BC09E05CFF4F8191919168
:102F300020813181821B930B8F739070892B09F054
:102F4000EFDEE091DD09F091DE09E05CFF4F819159
:102F5000919120813181821B930B8F739070892B0B
:102F600009F01EDFE091FF09F091000AE05CFF4FDD
:102F70008191919120813181821B930B8F7390708D
:102F8000892B09F04DDFE091210AF091220AE05CE3
:102F9000FF4F8191919120813181821B930B8F731F
:102FA0009070892B09F07CCF08951F920F920FB675
:102FB0000F920BB60F9211242F933F938F939F93F1
:102FC000EF93FF9320911308309114088091150816
:102FD000909116082817390731F48091C1008F7D30
:102FE0008093C10014C0E0911508F0911608ED52CD
:102FF000F84F2081809115089091160801968F73E3
:10300000907090931608809315082093C600FF9146
:10301000EF919F918F913F912F910F900BBE0F9049
:103020000FBE0F901F9018951F920F920FB60F9220
:103030000BB60F9211242F933F938F939F93EF938F
:10304000FF9320919B0830919C0880919D0890915E
:103050009E082817390731F48091C9008F7D80932D
:10306000C90014C0E0919D08F0919E08E55AF74F01
:10307000208180919D0890919E0801968F73907099
:1030800090939E0880939D082093CE00FF91EF912E
:103090009F918F913F912F910F900BBE0F900FBE7C
:1030A0000F901F9018951F920F920FB60F920BB6AC
:1030B0000F9211242F933F938F939F93EF93FF933E
:1030C00020912309309124098091250990912609A6
:1030D0002817390731F48091D1008F7D8093D1007A
:1030E00014C0E0912509F0912609ED51F74F208198
:1030F000809125099091260901968F739070909385
:103100002609809325092093D600FF91EF919F9186
:103110008F913F912F910F900BBE0F900FBE0F908C
:103120001F9018951F920F920FB60F920BB60F9229
:1031300011242F933F938F939F93EF93FF932091AD
:10314000AB093091AC098091AD099091AE09281777
:10315000390731F4809131018F7D8093310114C0A2
:10316000E091AD09F091AE09E559F64F20818091CB
:10317000AD099091AE0901968F7390709093AE094E
:103180008093AD0920933601FF91EF919F918F912C
:103190003F912F910F900BBE0F900FBE0F901F907D
:1031A0001895AF92BF92DF92EF92FF920F931F9309
:1031B000CF93DF93EC017A018B01DD24403081EE67
:1031C000580780E0680780E0780711F0DD24D39489
:1031D00091E0A92EB12CEC89FD89DD2069F0C501B3
:1031E00008A002C0880F991F0A94E2F7808360E06C
:1031F00079E08DE390E005C0108260E874E88EE12C
:1032000090E0A8019701A6D32150304040405040A3
:10321000569547953795279580E12030380720F05F
:10322000DD2011F0DD24D7CFE889F9893083EA89E0
:10323000FB89208319A2EE89FF89408121E030E0DB
:10324000C9010C8C02C0880F991F0A94E2F7482B21
:103250004083EE89FF894081C9010D8C02C0880F2F
:10326000991F0A94E2F7482B4083EE89FF89408139
:10327000C9010E8C02C0880F991F0A94E2F7482BEF
:103280004083EE89FF8980810F8C02C0220F331F9B
:103290000A94E2F7209528232083DF91CF911F9194
:1032A0000F91FF90EF90DF90BF90AF900895DC01F9
:1032B0001C96ED91FC911D97E05CFF4F219131919F
:1032C00080819181281B390B2F733070C9010895BB
:1032D000DC011C96ED91FC911D97E05CFF4F208175
:1032E0003181E054F040DF01AE5BBF4F8D919C9186
:1032F00011972817390719F42FEF3FEF07C08D9169
:103300009C91E80FF91F8081282F30E0C9010895B2
:10331000DC011C96ED91FC911D97E05CFF4F208134
:103320003181E054F040DF01AE5BBF4F8D919C9145
:1033300011972817390719F42FEF3FEF10C08D911F
:103340009C911197E80FF91F20818D919C91119705
:1033500001968F73907011969C938E9330E0C90103
:103360000895DC0191968C919197882339F05496B9
:10337000ED91FC915597808186FFF9CF91961C9233
:103380000895CF93DF93EC01EE85FF85E05CFF4F5E
:1033900020813181E054F0402F5F3F4F2F73307018
:1033A000DF01AE5BBF4F8D919C91119728173907B4
:1033B000D1F3E05CFF4F80819181E054F040E80F51
:1033C000F91F6083EE85FF85E05CFF4F318320832A
:1033D000EE89FF89208181E090E00F8C02C0880F88
:1033E000991F0A94E2F7282B208381E089A3EC89B6
:1033F000FD8980818064808381E090E0DF91CF91BE
:1034000008951F931092B2091092B10928EE33E08B
:1034100040E050E02093B3093093B4094093B509DC
:103420005093B60963E476E07093B0096093AF09F6
:103430008FE897E09093BC098093BB0983ED97E0F8
:103440009093BE098093BD0985EC90E09093C009EC
:103450008093BF0984EC90E09093C2098093C109E6
:1034600080EC90E09093C4098093C30981EC90E0D4
:103470009093C6098093C50982EC90E09093C809A7
:103480008093C70986EC90E09093CA098093C9099C
:1034900014E01093CB09B3E0B093CC09A7E0A0935C
:1034A000CD09F5E0F093CE09E1E0E093CF09109269
:1034B000D4091092D3092093D5093093D6094093AB
:1034C000D7095093D8097093D2096093D10987E145
:1034D00098E09093DE098093DD098BE598E0909366
:1034E000E0098093DF098DEC90E09093E2098093EE
:1034F000E1098CEC90E09093E4098093E30988EC77
:1035000090E09093E6098093E50989EC90E0909330
:10351000E8098093E7098AEC90E09093EA098093A8
:10352000E9098EEC90E09093EC098093EB091093FD
:10353000ED09B093EE09A093EF09F093F009E09341
:10354000F1091092F6091092F5092093F7093093CA
:10355000F8094093F9095093FA097093F4096093BC
:10356000F3098FE998E09093000A8093FF0983EEB6
:1035700098E09093020A8093010A85ED90E0909381
:10358000040A8093030A84ED90E09093060A8093E6
:10359000050A80ED90E09093080A8093070A81ED78
:1035A00090E090930A0A8093090A82ED90E090934C
:1035B0000C0A80930B0A86ED90E090930E0A80939C
:1035C0000D0A10930F0AB093100AA093110AF093FA
:1035D000120AE093130A1092180A1092170A209305
:1035E000190A30931A0A40931B0A50931C0A7093CD
:1035F000160A6093150A87E299E09093220A809355
:10360000210A8BE699E09093240A8093230A85E3AC
:1036100091E09093260A8093250A84E391E09093A9
:10362000280A8093270A80E391E090932A0A8093E6
:10363000290A81E391E090932C0A80932B0A82E37C
:1036400091E090932E0A80932D0A86E391E0909367
:10365000300A80932F0A1093310AB093320AA09354
:10366000330AF093340AE093350A1F9108950F93BB
:103670001F93CF93DF93BC018230910510F462E079
:1036800070E0E091390AF0913A0AA0E0B0E040E041
:1036900050E024C08081918186179707D0F086176B
:1036A000970771F482819381109729F013969C9368
:1036B0008E9312972CC090933A0A8093390A27C0B0
:1036C0004115510519F08417950718F4EF018D0184
:1036D000AC01DF01828193819C01F9013097D1F621
:1036E00041155105F9F0CA01861B970B84309105ED
:1036F00080F48A819B810115110521F0F8019383E3
:10370000828304C090933A0A8093390AFE0132966C
:1037100045C0FE01E80FF91F6193719302979983E9
:1037200088833CC08091370A9091380A892B41F4F4
:103730008091FB059091FC059093380A8093370A9D
:103740004091FD055091FE054115510541F44DB7DD
:103750005EB78091F9059091FA05481B590B2091AD
:10376000370A3091380A24173507B0F4CA01821B92
:10377000930B8617970780F0AB014E5F5F4F84175E
:10378000950750F0420F531F5093380A4093370A61
:10379000F9016193719302C0E0E0F0E0CF01DF91A5
:1037A000CF911F910F910895CF93DF939C010097C4
:1037B00009F48FC0EC0122971B821A826091390AAA
:1037C00070913A0A6115710581F488819981820F9F
:1037D000931F2091370A3091380A2817390739F595
:1037E000D093380AC093370A74C0DB0140E050E040
:1037F000AC17BD0708F1BB83AA83FE01219131916B
:10380000E20FF31FAE17BF0779F48D919C911197CA
:10381000280F391F2E5F3F4F3983288312968D91D1
:103820009C9113979B838A834115510571F4D09322
:103830003A0AC093390A4DC012968D919C91139704
:10384000AD01009711F0DC01D3CFDA011396DC93C0
:10385000CE931297FA0121913191E20FF31FCE1707
:10386000DF0769F488819981280F391F2E5F3F4F48
:10387000FA01318320838A819B8193838283E0E0F4
:10388000F0E0DB0112968D919C911397009719F04F
:10389000BC01FD01F6CFAB014E5F5F4FDB018D91A7
:1038A0009C91840F951F2091370A3091380A281770
:1038B000390779F4309729F410923A0A1092390AAC
:1038C00002C013821282425050405093380A4093F3
:1038D000370ADF91CF910895629FD001739FF00165
:1038E000829FE00DF11D649FE00DF11D929FF00D90
:1038F000839FF00D749FF00D659FF00D9927729FC7
:10390000B00DE11DF91F639FB00DE11DF91FBD0151
:10391000CF0111240895991B79E004C0991F9617CF
:1039200008F0961B881F7A95C9F78095089597FB34
:10393000092E07260AD077FD04D049D006D00020F2
:103940001AF4709561957F4F0895F6F790958195DB
:103950009F4F0895A1E21A2EAA1BBB1BFD010DC0AB
:10396000AA1FBB1FEE1FFF1FA217B307E407F5072F
:1039700020F0A21BB30BE40BF50B661F771F881F0B
:10398000991F1A9469F760957095809590959B01A1
:10399000AC01BD01CF01089597FB092E05260ED07D
:1039A00057FD04D0D7DF0AD0001C38F4509540955D
:1039B000309521953F4F4F4F5F4F0895F6F7909503
:1039C0008095709561957F4F8F4F9F4F0895AA1BEB
:1039D000BB1B51E107C0AA1FBB1FA617B70710F0FA
:1039E000A61BB70B881F991F5A95A9F7809590952C
:1039F000BC01CD010895EE0FFF1F0590F491E02D5D
:103A00001994803209F0911104C080528F55E0F76B
:103A100008959927882708952F923F924F925F9299
:103A20006F927F928F929F92AF92BF92CF92DF92CE
:103A3000EF92FF920F931F93CF93DF93CDB7DEB733
:103A4000CA1BDB0B0FB6F894DEBF0FBECDBF1994B7
:103A50002A88398848885F846E847D848C849B841E
:103A6000AA84B984C884DF80EE80FD800C811B812C
:103A7000AA81B981CE0FD11D0FB6F894DEBF0FBE5B
:103A8000CDBFED01089512E0C8E0D2E003C0FE0111
:0E3A9000B4DF2296CA30D107D1F7F894FFCFE9
:103A9E00302E39004552524F5220436F6D6D616E7C
:103AAE0064206E6F742076616C6964004155544FCA
:103ABE002020202020202020202020202020546F75
:103ACE0067676C65204175746F204D6F6465204F7C
:103ADE004E206F72204F46460044454255472020E7
:103AEE002020202020202020202020546F67676C6B
:103AFE0065204445425547204D6F6465204F4E204A
:103B0E006F72204F464600532078782020202020C8
:103B1E002020202020202020204368616E676573BE
:103B2E0020746865205348414B45206E756D626563
:103B3E0072202864656661756C74203229004720F6
:103B4E0078782020202020202020202020202020B7
:103B5E004368616E676573207468652047524F55E0
:103B6E0050206E756D626572202864656661756C95
:103B7E0074203429004420787878202020202020BA
:103B8E00202020202020204368616E6765732074FA
:103B9E0068652044454C4159206265747765656EB1
:103BAE00206D6F746F72206D6F76656D656E7473B8
:103BBE00202864656661756C74203530302900529A
:103BCE00206D696E206D617820202020202020201D
:103BDE00204368616E676573207468652072616E3C
:103BEE00646F6D20494E54455256414C53207061BE
:103BFE0072616D6574657273202864656661756C9B
:103C0E007420312037206D696E7574657329004CF0
:103C1E002020202020202020202020202020202096
:103C2E00204C6973742063757272656E746C7920A2
:103C3E007365742076616C756573004D20787820FD
:103C4E00202020202020202020202020204D6F7694
:103C5E006573204368616E6E656C2078782028311C
:103C6E002D534552564F5F4E554D424552290053E6
:103C7E005420202020202020202020202020202002
:103C8E0020526F7461746520616C6C20736572765E
:103C9E006F7320696E2067726F757073206F662068
:103CAE00787800495220317C30202020202020209E
:103CBE002020202020537769746368657320496E35
:103CCE00667261726564204C454473204F6E206F9E
:103CDE0072204F66660048454C5020202020202040
:103CEE0020202020202020205072696E74207468BD
:103CFE0069732068656C70206D657373616765000C
:103D0E003D3D3D3D3D3D3D3D3D3D3D3D3D3D3D3DD5
:103D1E003D3D3D3D3D3D3D3D3D3D3D3D3D3D3D3DC5
:103D2E003D3D3D3D3D3D3D3D3D3D3D3D3D3D3D3DB5
:103D3E003D3D3D3D3D3D3D3D3D3D3D3D3D3D3D3DA5
:103D4E003D3D3D3D3D3D3D3D3D3D3D3D3D3D3D3D95
:103D5E003D004F4646004C4544204552524F52219D
:103D6E00004F4E004952204C4544733A20004845BE
:103D7E004C50004C004D005300440047005200418F
:103D8E0055544F0044454255470053540049520084
:103D9E004D6F76696E67206368616E6E656C3A0072
:103DAE00200020776974682050494E3A20004D6FEC
:103DBE0076696E6720616C6C20696E2067726F7514
:103DCE007073206F6620004F4B2043005000004E52
:103DDE0065787420726F746174696F6E20696E20DD
:103DEE0000206D696E757465730025303264003A7B
:103DFE000056657273696F6E3A2000557074696D66
:103E0E00653A20004175746F6D6F64653A200053FA
:103E1E0068616B65206E756D6265723A200047723F
:103E2E006F75702053697A653A20004D6F74696F13
:103E3E006E2044656C61793A200052414E444F4DDC
:103E4E0020696E74657276616C733A2000202D20A5
:103E5E0000526F746174696F6E2064656C61793A9B
:103E6E002000566F6C746167653A2000526561647C
:103E7E00792E00200001000000020058020400010B
:103E8E0001010007000100010180003B0A0000252E
:103E9E0000240023002200210020001F001E001D10
:103EAE00001C001B001A001900180017001600262F
:103EBE00002700280029002A002B002C002D002EA0
:103ECE00002F003000310032003300340035000086
:103EDE00000000C119C815571988196819B11900C1
:00000001FF
